:020000040800F2
:10000000F00301203103000815D9000895A100086C
:1000100079D600088D210008B543010800000000D2
:100020000000000000000000000000007102000855
:10003000EB4B000800000000CD020008470E01084D
:100040004B0300084B0300084B0300084B03000858
:100050004B0300084B030008A35100084B030008A2
:100060004B030008AD510008B75100084B030008CE
:100070004B0300084B0300084B0300084B03000828
:100080004B0300084B0300084B0300084B03000818
:10009000912100084B0300084B030008C1510008E0
:1000A0004B0300084B0300084B0300084B030008F8
:1000B0004B0300084B0300084B0300084B030008E8
:1000C0004B0300084B0300084B0300084B030008D8
:1000D0004B030008C11701084B030008F118010881
:1000E0004B0300084B0300084B0300084B030008B8
:1000F0004B0300084B0300084B030008AD41000808
:100100004B0300084B0300084B0300084B03000897
:100110004B0300084B0300084B0300084B03000887
:100120004B03000829420008394200084B0300082D
:100130004B0300084B0300084B0300084B03000867
:10014000A12100084B0300084B03000845D9000813
:10015000D14A0008E14A0008F14A0008E91A0108FA
:100160004B0300084B0300084B0300084B03000837
:100170004B0300084B0300084B030008000000007D
:100180004B0300084B03000800F002F800F060F891
:100190000AA090E8000C82448344AAF10107DA45E2
:1001A00001D100F055F8AFF2090EBAE80F0013F0D4
:1001B000010F18BFFB1A43F001031847A8DE010026
:1001C000C8DE01000A444FF0000C10F8013B13F0A8
:1001D000070408BF10F8014B1D1108BF10F8015BA0
:1001E000641E05D010F8016B641E01F8016BF9D193
:1001F00013F0080F1EBF10F8014BAD1C0C1B09D1EA
:100200006D1E58BF01F801CBFAD505E014F8016B5B
:1002100001F8016B6D1EF9D59142D6D370470000ED
:100220000023002400250026103A28BF78C1FBD8FF
:10023000520728BF30C148BF0B6070471FB51CF084
:10024000A7FC9DE8030001F097F81FBD10B510BD95
:1002500001F07BF91146FFF7F1FF18F07DFC01F08A
:1002600099F903B4FFF7F2FF03BC01F01FF9000096
:100270002C4B19680868B0E8F04F80F30988BFF389
:100280006F8F4FF0000080F311887047000000006E
:1002900008480068006880F308884FF0000080F389
:1002A000148862B661B6BFF34F8FBFF36F8F00DF64
:1002B00000BF00BF08ED00E0DFF80C00016841F46A
:1002C00070010160704700BF88ED00E0EFF3098026
:1002D000BFF36F8F134B1A681EF0100F08BF20ED8D
:1002E000108A20E9F04F106009B44FF0500080F3FD
:1002F0001188BFF34F8FBFF36F8F1AF08FF94FF054
:10030000000080F3118809BC19680868B0E8F04F54
:100310001EF0100F08BFB0EC108A80F30988BFF3FD
:100320006F8F7047B0000020EFF30580704700002A
:100330000948804709480047FEE7FEE7FEE7FEE779
:10034000FEE7FEE7FEE7FEE7FEE7FEE704480549B5
:10035000054A064B70470000290F01088901000873
:10036000F0C30020F0030120F0E30020F0E30020C0
:100370009FED1A1AF5EE000A40EE010ABDEEE00A02
:10038000F5EEC00A10EE100AF1EE10FA38BF401E6A
:1003900000EE100A1349F7EE001AB8EEC00A30EE6C
:1003A000C00ADFED0F0A20EE200AFCEEC00A10EEB4
:1003B000900AC0F3080000EE900A01EB8000F8EE0E
:1003C000600A90ED011A70EE600A90ED000A71EE7D
:1003D000E01A21EE800A00EE810A704783F9223E7E
:1003E0000000004400D60108DFED190AB5EEC00A8E
:1003F00060EE200ABDEEE01A11EE100AF1EE10FADE
:1004000038BF401E00EE100A1349F7EE001AB8EE8E
:10041000C00A30EEC00ADFED0F0A60EE200ABCEE23
:10042000E00A10EE100AC0F3080000EE100A01EB1B
:100430008000B8EE400A90ED011A70EEC00A90ED0F
:10044000000A71EEE01A21EE800A00EE810A704780
:1004500083F9223E0000004400D6010870B40588EC
:100460000E884468D1F804C05368B54208D140886A
:100470004988884201BF11888D425188884203D043
:1004800070BC6FF00200704705FB00F1880827D0B0
:1004900094ED001ADCED000A94ED010ADCED011A7E
:1004A00031EE201AD4ED020A70EE211A9CED020AF8
:1004B00083ED001AC3ED011A94ED031ADCED031A63
:1004C00030EE800A401E71EE210A83ED020A04F12B
:1004D0001004C3ED030A03F110030CF1100CD7D183
:1004E00011F0030030D0B0F1004F30D200282BDDE6
:1004F000211F1B1FACF1040210F0010F0AD091ED77
:10050000010AD2ED010A091D121D30EE200A83ED09
:10051000010A1B1D400817D091ED010AD2ED010A16
:10052000401E30EE200A83ED010A91ED020AD2ED61
:10053000020A01F1080102F1080230EE200A83EDFF
:10054000020A03F10803E7D170BC00207047B4EC45
:10055000010A401EFCEC010A30EE200AA3EC010A5D
:10056000F5D1F1E701804280436070472DE9F34FF8
:1005700084B0049840680090486801900498B0F8EE
:1005800000E04588DFEDFE0A00200290B0EE600A30
:10059000AE4506D108884988884204BF7146864521
:1005A00004D06FF0020006B0BDE8F08F01985FEA5A
:1005B000010C18BFB7EE001A3DD000BFBEEB0C0116
:1005C00017D0B1F1004F80F01F82002911DD021F0A
:1005D00011F0010F1CBFC2ED010A121D4B1006D015
:1005E000C2ED010AC2ED020A08325B1EF8D100EB2F
:1005F0008100BCF10102A0EC011A19D0B2F1004F48
:1006000080F00882002A13DD031F12F0010F1CBFC7
:10061000C3ED010A1B1D511008D000BFC3ED010A34
:10062000C3ED020A491E03F10803F7D100EB820073
:10063000BCF1010CC2D14FF000080395002D14BF8E
:10064000B0EE602A002000F0BF8100BF009908FBD7
:1006500005F001EB800B0199DBED002A01EB800036
:100660000346F0EE421AC64552D9AEEB0802ABEB98
:10067000850112F0010F17D001EB850191ED000A01
:10068000B5EEC00AF1EE10FA07DDB4EEE10AF1EEC4
:1006900010FA09DDF0EE401A06E0B1EE400AF4EE81
:1006A000C01AF1EE10FAF5D3521031D001EB850CDF
:1006B0009CED000AB5EEC00AF1EE10FA05DDB4EECD
:1006C000E10AF1EE10FA09DD06E0B1EE400AF4EEBF
:1006D000C01AF1EE10FA01D2F0EE401A01EBC5019A
:1006E00091ED000AB5EEC00AF1EE10FA05DDB4EEA8
:1006F000E10AF1EE10FA09DD06E0B1EE400AF4EE8F
:10070000C01AF1EE10FA01D2F0EE401A521ECDD10D
:10071000F5EEC01AF1EE10FA00F07381F5EEC02A82
:100720000126F1EE10FA0099D4BFB1EE620AB0EEE4
:10073000620AB4EE610AF1EE10FA1CBFAEEB0802D9
:10074000B2F1010C47D005FB08F201EB820292EDF9
:10075000001A00BFB0EE410A05FB06F4B5EEC00A70
:1007600000EB8404F1EE10FACCBFF0EE400AF1EE9B
:10077000400AF4EE610AF1EE10FA28D1B5EB080C4C
:1007800011D0BCF1004F7DD2BCF1000F0BDD00BFDA
:1007900092ED000AD1ED000ABCF1010CE2EC010A75
:1007A000A1EC010AF4D129000ED0B1F1004F6AD2B8
:1007B000002909DD94ED000AD0ED000A491EE4ECA1
:1007C000010AA0EC010AF5D1012002900BE0761C91
:1007D000BCF1010CBED10298012804D0F5EEC02A6C
:1007E000F1EE10FA7ED09BED000AB5EB08009A46B8
:1007F0005946064622D0B0F1004F74D200281DDDC4
:10080000091F10F0010F06D0F0EE400A80EEA01A8A
:1008100081ED011A091D401010D000BFD1ED010A71
:10082000401E80EE801A81ED011A91ED021AC1EE90
:10083000000AC1ED020A01F10801EFD1280026D01B
:10084000B0F1004F7ED2002821DDAAF1040110F0A2
:10085000010F06D0D1ED010A80EE801A81ED011A58
:10086000091D401013D000BFD1ED010A401E80EEDB
:10087000801A81ED011AD1ED020A80EE801A81ED15
:10088000021A01E0CBE0D6E001F10801ECD1DDE98C
:1008900000124FF000095FEA0E0773D0C14504BF94
:1008A00001EB860102EB850274D091ED000ADC4673
:1008B0005046330035D01C46B6F1004F7ED2002C96
:1008C0002FDD0B1FABF1040C16F0010F0FD0F0EE73
:1008D000400ADCED011AB0EE601A00EEE11A83ED79
:1008E000011A01E08DE0B1E01B1D0CF1040C741045
:1008F00015D000BFD3ED010A9CED011A40EE410A6C
:10090000C3ED010AD3ED020A9CED021A0CF1080CAA
:1009100040EE410AC3ED020A0833641EEAD101EB3E
:1009200086012B0036D0B3F1004F72D2002B31DD9F
:10093000A2F1040CAAF1040013F0010F0CD0DCEDBD
:10094000010A00E08BE090ED011A001D40EE410A23
:10095000CCED010A0CF1040C5C1019D0DCED010A9D
:1009600090ED011A40EE410ACCED010ADCED020ADD
:1009700090ED021A083040EE410ACCED020A03E085
:10098000000000000DE005E0641E0CF1080CE5D14C
:1009900002EB830201EB88017F1E09F101097FF45C
:1009A0007DAF009808F10108001D00900398401EDB
:1009B00003907FF44BAE0299012900E058E004BF98
:1009C00006B0BDE8F08F00BFB5EEC00AF1EE10FA38
:1009D0007FF4E9AD04990EFB05F3002B4A684FF054
:1009E00000010BD902EB810C9CED000AB5EEC00AA8
:1009F000F1EE10FA02D1491C8B42F3D88B427FF4FE
:100A0000D2AD6FF00400CEE5E0EC010A491EFBD147
:100A1000EFE538E0E0EC010A521EFBD108E692ED6A
:100A2000000AD1ED000ABCF1010CE2EC010AA1ECD4
:100A3000010AF4D1B7E694ED000AD0ED000A491E90
:100A4000E4EC010AA0EC010AF5D1BDE6D1ED000A03
:100A5000401E80EE801AA1EC011AF7D1EEE6D3ED2C
:100A6000000A401E80EE801AA3EC011AF7D10EE7AF
:100A7000BCEC011AD1ED000A5B1E40EE410AE1EC2C
:100A8000010AF5D14DE7B0EC011AD2ED000A5B1E68
:100A900040EE410AE2EC010AF5D17BE72DE9F04F87
:100AA00082B0466853680193058847884B880020C8
:100AB00000900888874201BFB2F800C0654552889F
:100AC00093421EBF6FF0020002B0BDE8F08F9FEDB1
:100AD000412A4FEA970EC7F3400B00BFDDE9000241
:100AE00002EB800A4A6898464FF00009B0EE420ACD
:100AF000B4465FEA0E0025D092ED001ADCED001A34
:100B000002EB8302DCED010A01EE810A92ED001A8C
:100B100002EB8302401ED2ED001A02EB830200EECC
:100B2000810A9CED021ADCED030A00040CF1100CA2
:100B3000000C01EE210A92ED001A02EB830200EE96
:100B4000810AD9D117F0030026D0ACF10404A2EB3E
:100B5000830210F0010F08D002EB8302D4ED010AEA
:100B600092ED001A241D00EE810A5FEA0B0013D0FB
:100B700002EB830CD4ED010A9CED001A02EBC302D8
:100B8000401E00EE810AD4ED020A92ED001A04F133
:100B9000080400EE810AEBD109F10100AAEC010A78
:100BA0001FFA80F9486800EB8902A8F101001FFADA
:100BB00080F8B8F1000F99D1009806EB8706184429
:100BC00080B20090681E05042D0C87D102B0002071
:100BD000BDE8F08F0000000070B405880E884468FE
:100BE000D1F804C05368B54208D14088498888428A
:100BF00001BF11888D425188884203D070BC6FF0CC
:100C00000200704705FB00F1880827D094ED001A18
:100C1000DCED000A94ED010ADCED011A31EE601AF8
:100C2000D4ED020A70EE611A9CED020A83ED001AFF
:100C3000C3ED011A94ED031ADCED031A30EEC00A7D
:100C4000401E71EE610A83ED020A04F11004C3ED47
:100C5000030A03F110030CF1100CD7D111F00300BB
:100C600030D0B0F1004F30D200282BDD211F1B1FE8
:100C7000ACF1040210F0010F0AD091ED010AD2ED9F
:100C8000010A091D121D30EE600A83ED010A1B1DC9
:100C9000400817D091ED010AD2ED010A401E30EE56
:100CA000600A83ED010A91ED020AD2ED020A01F118
:100CB000080102F1080230EE600A83ED020A03F136
:100CC0000803E7D170BC00207047B4EC010A401E55
:100CD000FCEC010A30EE600AA3EC010AF5D1F1E761
:100CE0002DE9F04F02884768B0F802804888D1F8B3
:100CF000049082B04FF0000A1646824207BF09886E
:100D000088456FF0020002B018BFBDE8F08F4FEACF
:100D1000980B02EB42000190C8F34000CDF80000B0
:100D200009EB8A01BBF1000F33D0019801EB820C73
:100D300001EB80043B46E64601EBC2054FEA0B009F
:100D400093ED000A401E81ED000A93ED010A01EBCC
:100D500002118CED000A93ED020A0CEB021C85EDEA
:100D6000000A93ED030A05EB021584ED000A04EB7B
:100D7000021403F11003E3D10EEB820000EB8200BA
:100D800000EB8201ABF10100504307EB0B1701EBC5
:100D9000001118F0030C21D03B1FA1EB82011CF0C5
:100DA000010F06D093ED010A01EB82011B1D81EDBD
:100DB000000A009880B100BF93ED010A01EB8204A4
:100DC00001EBC20184ED000A93ED020A401E81EDA1
:100DD000000A03F10803EFD107EB8C070AF10100C9
:100DE0001FFA80FA701E0604360C99D102B000205A
:100DF000BDE8F08F70B5064600F0A2FA056806F16E
:100E00000B0020F00704B4429CBF002070BD2B46AD
:100E10006A68BAB11068A04210D304F10801884290
:100E20003CBF5068586007D3516810194160116881
:100E3000091B016058601460101D70BD1346526894
:100E4000002AE7D12146284600F082FA0028DED1A8
:100E500070BD70B50446051F00F072FA0068002CE2
:100E600014BF446870BD002C18BFAC423CBF204684
:100E70006468F8D301680A18AA4218BF456003D114
:100E80002A6805461144016028684119A1421CBF27
:100E90006C6070BD6168696021680844286070BD3D
:100EA00053EA020C00F069802DE9F04B4FF0000688
:100EB000002B1FBFB3FA83F503FA05F424FA05F6F5
:100EC0005E4012BF1643B2FA82F502FA05F4C5F18C
:100ED00020051EBF22FA05FC44EA0C04203556EA20
:100EE000044C4FEA144418BF641C4FF000084FF044
:100EF0000009904271EB030C39D3002919BFB1FAF4
:100F000081F701FA07F6B0FA80F700FA07F6C7F1A1
:100F100020071EBF20FA07FC46EA0C062037B6FB66
:100F2000F4FCA7EB0507103F07F01F0BCBF12006E1
:100F30000CFA0BFB2CFA06F644BFB3460026202F12
:100F4000A4BF5E464FF0000B5BEA060C08BF4FF0F3
:100F5000010B19EB0B09ABFB027C48EB0608C01B2D
:100F600006FB02CC0BFB03CC71EB0C01C1E70B467B
:100F7000024641464846BDE8F08B13B54FF00000ED
:100F80004FF00001AFF30080BDE81C407047000047
:100F90000EB5054614460E4613A000F039FA284651
:100FA00000F036FA16A000F033FA304600F030FABE
:100FB00015A000F02DFA00218DF80B100A210DF17B
:100FC0000A008DF80A1008E094FBF1F201FB1242CE
:100FD00094FBF1F4303200F8012D002CF4DC00F029
:100FE00017FA00F00AFA00002A2A2A2061737365B2
:100FF0007274696F6E206661696C65643A200000E6
:101000002C2066696C6520002C206C696E652000C0
:1010100010B5431C02E010F8011B71B18107FAD131
:101020004FF0013202C88C1A8C4314EAC211F9D075
:10103000C01A0A0603D0C01E10BDC01A10BD0A0493
:1010400001D0801E10BD0902FCD0401E10BD032A35
:1010500040F2308010F0030C00F0158011F8013BD5
:10106000BCF1020F624498BF11F801CB00F8013BBC
:1010700038BF11F8013BA2F1040298BF00F801CB80
:1010800038BF00F8013B11F0030300F06780083A15
:10109000C0F0088051F8043B083A51F804CBA0E8AE
:1010A0000810F5E7121D5CBF51F8043B40F8043B03
:1010B000AFF30080D20724BF11F8013B11F801CB38
:1010C00048BF11F8012B24BF00F8013B00F801CB09
:1010D00048BF00F8012B7047431A28BF9A427FF699
:1010E000B6AF032A1044114440F2268010F0030FDB
:1010F0001EBF11F8013D521E00F8013D10F0030F14
:101100007FF4F6AF11F0030300F09F81083AC0F0BE
:101110000B8051F8043D083A51F804CD40F8043DE5
:1011200040F804CDFFF7F3BF121D5CBF51F8043D3A
:1011300040F8043DAFF30080D20724BF11F8013D11
:1011400011F801CD48BF11F8012C24BF00F8013D72
:1011500000F801CD48BF00F8012C704710B5203AC7
:10116000C0F00B80B1E81850203AA0E81850B1E860
:101170001850A0E81850BFF4F5AF5FEA027C24BF16
:10118000B1E81850A0E8185044BF18C918C0BDE80D
:1011900010405FEA827C24BF51F8043B40F8043BD6
:1011A00008BF7047D20728BF31F8023B48BF11F88B
:1011B000012B28BF20F8023B48BF00F8012B7047E5
:1011C00002F0FF0343EA032242EA024200F002B8BF
:1011D0004FF000020429C0F0128010F0030C00F060
:1011E0001B80CCF1040CBCF1020F18BF00F8012BDE
:1011F000A8BF20F8022BA1EB0C0100F00DB85FEAAC
:10120000C17C24BF00F8012B00F8012B48BF00F877
:10121000012B70474FF0000200B5134694469646E6
:10122000203922BFA0E80C50A0E80C50B1F12001F9
:10123000BFF4F7AF090728BFA0E80C5048BF0CC0A7
:101240005DF804EB890028BF40F8042B08BF704705
:1012500048BF20F8022B11F0804F18BF00F8012B77
:10126000704710B5044610F0030F08BF11F0030FCC
:1012700040F015804FF0013E121FC0F20E8051F871
:10128000043BA3EB0E0C2CEA030C1CEACE1C08BF9B
:1012900040F8043BF0D0A1F1040102F10402521E17
:1012A00008DB11F8013B002B00F8013BF7D1114698
:1012B000FFF78EFF204610BD4FF0013C50F8042B85
:1012C00051F8043B9A4221D1A2EB0C03934313EA59
:1012D000CC1317D150F8042B51F8043B9A4215D186
:1012E000A2EB0C03934313EACC130BD150F8042B5D
:1012F00051F8043B9A4209D1A2EB0C03934313EA41
:10130000CC13DBD04FF00000704700BFD01A01BAF9
:10131000B1FA81F101F0180122FA01F0CB40C1F1DC
:101320002001DBB2C0B2C01A2CFA01F3D11A9143EA
:1013300011EAC311E6D1704770477047704700004B
:101340000048704798C30020704770477047704747
:1013500038B504460A4600206946AFF300800028ED
:1013600008BF38BD02460099204600F0ADF80120C4
:1013700038BD012000F0E1B8F8B5AFF300800546B4
:1013800000200C46102000BF0646A819A0420DD927
:10139000324669460020AFF30080070008BF00F026
:1013A000CCF80098A04218BF0546C419FFF7C8FF43
:1013B00005600746F01D20F007004619284600F09A
:1013C0000AF8B44208BFF8BDA21B31463868BDE830
:1013D000F84000F079B800210160C0E901107047C1
:1013E0001020704710B500F06BF8006810BD10B504
:1013F000044600F065F8046010BD10B5002000F050
:1014000095F8FEF723FFBDE81040012000F04EB82C
:1014100010B5044602E0641C00F041F82078002872
:10142000F9D110BD431A28BF9A427FF697AE1044F7
:1014300010F0030F11441EBF11F8013D521E00F8B9
:10144000013D10F0030F7FF4F6AF103AC0F00A80B0
:1014500010B531E91850103A20E91850BFF4F9AF2F
:10146000BDE81040530724BF31E9081020E90810F7
:1014700044BF51F8043D40F8043D12F0030F08BF8B
:101480007047D20728BF31F8023D48BF11F8012C40
:1014900028BF20F8023D48BF00F8012C704708B56E
:1014A00069468DF800000320ABBE08BD0149182035
:1014B000ABBEFEE7260002000048704790C3002044
:1014C0000048704790C30020034640688C460028BF
:1014D00018BF88423CBF03464068F8D318681844D8
:1014E000884207D00CF1030020F00700001D411ACC
:1014F000521A0146081D0A60FFF7ABBC1FB584B045
:1015000000200A9C06AB04AA02A90094AFF3008055
:1015100018B1DDE9020108B010BD0348204000F019
:101520005FF800200146F6E70000207C10B500F0CF
:101530003FF8BDE8104000F036B810B500F058F89C
:10154000BDE8104000F02FB870477546FFF7B4FFB4
:10155000AE4605006946534620F00700854618B0A0
:1015600020B5FEF7F3FEBDE820404FF000064FF037
:1015700000074FF000084FF0000B21F00701AC46C8
:10158000ACE8C009ACE8C009ACE8C009ACE8C009E7
:101590008D46704710B50446AFF300802046BDE885
:1015A0001040FEF75EBE002801D0FFF77FBF7047F6
:1015B00010B5002102A000F043F8012010BD00008A
:1015C000534947414252543A2041626E6F726D61F5
:1015D0006C207465726D696E6174696F6E000000D5
:1015E00010B500F047F8BDE81040FFF7DCBF000081
:1015F00010B5012805D0002103A000F021F801203A
:1016000010BD09A1F8E7000053494752544D454D1C
:101610003A204F7574206F662068656170206D6593
:101620006D6F7279000000003A2048656170206D8E
:10163000656D6F727920636F727275707465640086
:1016400070B505460C460A2000E06D1CFFF727FF29
:1016500035B128780028F8D102E0641CFFF71FFF9D
:1016600014B120780028F8D1BDE870400A20FFF7B7
:1016700016BF000010B5022803D0410103D50DA10B
:1016800012E0002010BD010101D50FA10CE0C10046
:1016900001D511A108E0810001D512A104E04000AC
:1016A00001D513A100E0002115A0FFF7C9FF01201B
:1016B00010BD0000496E76616C6964204F706572E0
:1016C0006174696F6E000000446976696465204248
:1016D00079205A65726F00004F766572666C6F777D
:1016E00000000000556E646572666C6F7700000044
:1016F000496E657861637420526573756C7400007F
:101700005349474650453A2041726974686D657483
:10171000696320657863657074696F6E3A200000B4
:101720004A494A6822F440324A604A6843681A4388
:101730004A6001684A6822F480724A6001684A6817
:10174000036942EA03224A6001684A6822F0407253
:101750004A6001684A6883681A434A6001688A6877
:1017600022F400628A6001688A68C3681A438A604A
:10177000816A6FF07062D14214D001688A6822F0E9
:1017800070628A6001688A68836A1A438A600168A5
:101790008A6822F040528A6001688A68C36A1A43E4
:1017A0008A6009E001688A6822F070628A600168D4
:1017B0008A6822F040528A6001688A6822F0020238
:1017C0008A6001688A68037E42EA43028A6090F870
:1017D000201089B101684A6842F400624A600168D9
:1017E0004A6822F460424A6001684A68436A5B1EA4
:1017F00042EA43324A6004E001684A6822F4006227
:101800004A600168CA6A22F47002CA620168CA6A40
:10181000838B5B1E42EA0352CA6201688A6822F423
:1018200000728A6001688A6890F8303042EA432288
:101830008A6001688A6822F480628A6001688A6826
:10184000406942EA80208860704700000023014020
:1018500010B52DED028BB0EE408AB0EE480A13F0C1
:1018600015FCBDEC028B10BD10B52DED028BB0EE5A
:10187000408AF0EE608AF0EE680AB0EE480A13F093
:1018800007FFBDEC028B10BD10B52DED028BB0EE45
:10189000408AB0EE480AFEF76BFDBDEC028B10BD2E
:1018A00018B19FED020A80ED000A704700000000A9
:1018B00018B1B3EE060A80ED000A704770B52DED41
:1018C0000C8B84B006460C4615469FED990AF0EE47
:1018D000408A9FED970AB0EE409A9FED950AF0EE90
:1018E00040BA9FED930AF0EE409A9FED910AB0EE58
:1018F00040AA0EB104B11DB904B0BDEC0C8B70BD93
:101900008C48FFF7CDFF8C48FFF7D2FF8A48D0ED17
:10191000000A9FED8A1A60EE810AB0EE600A00F0BC
:101920002DF9F0EE408A28EEA80AF0EE408A8248AF
:10193000D0ED000AB0EE001A60EE810A9FED7F1A2A
:1019400060EE810AB0EE600A00F018F9B0EE409A3D
:1019500029EE090AB0EE409ADFED790AB7EE000AE7
:1019600000EEA80ADFED770A00EEC90ADFED760A7D
:1019700020EE200A754880ED000A6E4890ED000ABE
:10198000DFED730A80EE201AB7EE000A31EE000A8E
:1019900020EE000A6D48D0ED000A80EE801A6D48F6
:1019A00080ED001A94ED000AB5EEC00AF1EE10FACF
:1019B0000DD194ED010AB5EEC00AF1EE10FA06D190
:1019C00094ED020AB5EEC00AF1EE10FA46D09FED92
:1019D000580AB0EE408A0020019002900390D4EDA6
:1019E000000A60EEA00A94ED011AD4ED011A41EE4E
:1019F000210A94ED021AD4ED021A41EE210AB0EE4A
:101A0000600A00F0A9F8B0EE408A94ED000A20EEDA
:101A1000080A8DED010A94ED010A20EE080A8DED09
:101A2000020A94ED020A20EE080A8DED030ADDEDAC
:101A3000010AF1EE600AB0EE600AFFF709FFF0EE6E
:101A4000409A9DED031AF0EE410A9DED021AB0EEA8
:101A5000410AFFF709FFB0EE40AA07E09FED340A04
:101A6000F0EE409A9FED320AB0EE40AA95ED000AE2
:101A7000B5EEC00AF1EE10FA0DD195ED010AB5EE02
:101A8000C00AF1EE10FA06D195ED020AB5EEC00AD1
:101A9000F1EE10FA3CD0B0EE690A00F06FF8B0EE4B
:101AA000408AB0EE690AFFF7EFFEB0EE40DAB0EE22
:101AB0004A0A00F063F8F0EE40AAB0EE4A0AFFF7D7
:101AC000E3FEB0EE40BA28EE2A0AD5ED010A20EE78
:101AD000200AD5ED000A0DEE200A68EE0B0A95EDFE
:101AE000021A00EE810AB0EE40CA95ED010A20EE1E
:101AF0000B0AD5ED020A0AEEE00AF0EE40CAF0EE5B
:101B00006C0AB0EE4C0AFFF7AFFEF0EE40BA03E00D
:101B10009FED070AF0EE40BAB0EE4A1AF0EE690AFD
:101B2000B0EE6B0A304615F049F800BFE4E600005D
:101B300000000000E4080020E808002035FA8E3C90
:101B4000C1BFAD3B9DF8C5362F7C1C41EC08002081
:101B5000506CC24AF008002010B52DED028BB0EE9B
:101B6000408AB0EE480A14F01CFAB7EE001AC1EE33
:101B7000000AB0EE600ABDEC028B10BD10B52DED71
:101B8000028BB0EE408AB0EE480AFEF72DFCBDECA9
:101B9000028B10BD70B504460D462946204615F04F
:101BA000C3F870BD70B504460D462946204615F0B1
:101BB000D3F870BD10B501221021024805F07CFB5E
:101BC00010BD00000000024010B5002210210248A4
:101BD00005F072FB10BD00000000024070470000DD
:101BE00010B501221146024805F066FB10BD000049
:101BF0000004024010B500220121024805F05CFB00
:101C000010BD00000004024010B543781B021BB257
:101C10000478234300EE103AB8EEC01A1C4BD3ED03
:101C2000001A21EE211A81ED001AC3781B021BB2A3
:101C30008478234300EE103AB8EEC01A144BD3ED6B
:101C4000001A21EE211A81ED011A43791B021BB201
:101C50000479234300EE103AB8EEC01A0C4BD3EDD2
:101C6000001A21EE211A81ED021A037A1B04C479AD
:101C700043EA04238479234300EE903AB8EE601AD5
:101C8000DFED041A21EE211A82ED001A10BD0000CA
:101C90005402002000401C42704710B50446204604
:101CA00016F0B8FF10BD10B50446204615F092FDA1
:101CB00010BD00004278120212B203781A4300EEFF
:101CC000102AF8EEC00A144A92ED001A60EE810A5A
:101CD000C1ED000AC278120212B283781A4300EEF4
:101CE000102AF8EEC00A0C4A92ED001A60EE810A42
:101CF000C1ED010A4279120212B203791A4300EED1
:101D0000102AF8EEC00A044A92ED001A60EE810A29
:101D1000C1ED020A704700005802002010B50024EF
:101D2000FFF75CFFFFF7B8FF15F0ECF810B144F0D7
:101D3000800402E015F04CF8044315F0DBFA10B112
:101D400044F0400402E015F05BFA0443204610BD65
:101D50002DE9FC4105460E461746002000900190F3
:101D6000FFF732FF922000F0D1F8062269461220D8
:101D700000F0ACF8FFF71EFF9DF80100000200B272
:101D80009DF8001040EA010400EE104AB8EEC00AC7
:101D90004C48D0ED000A20EE200A86ED000A9DF89E
:101DA0000300000200B29DF8021040EA010400EEB8
:101DB000104AB8EEC00A4348D0ED000A20EE200ACF
:101DC00086ED010A9DF80500000200B29DF804109E
:101DD00040EA010400EE104AB8EEC00A3948D0EDDE
:101DE000000A20EE200A86ED020AFFF703FF082210
:101DF0006946002000F06AF8FFF7F2FE9DF8000047
:101E00000F2838D19DF80300000200B29DF802109F
:101E100040EA010400EE104AB8EEC00A2A48D0EDAC
:101E2000000A20EE200A85ED000A9DF80500000258
:101E300000B29DF8041040EA010400EE104AB8EE2A
:101E4000C00A2148D0ED000A20EE200A85ED010AE3
:101E50009DF80700000200B29DF8061040EA010458
:101E600000EE104AB8EEC00A1748D0ED000A20EE86
:101E7000200A85ED020AFFF7A7FEA22000F046F82F
:101E800002226946222000F021F8FFF793FE9DF818
:101E90000000C0009DF8011040EA6114B4F5806FA5
:101EA00002DBA4F5006004B200EE104AF8EEC00AAE
:101EB000B4EE001AB3EE070A00EE810A87ED000ABD
:101EC000BDE8FC81540200205802002070B506468F
:101ED0000C46154646F0800000F018F806E0552044
:101EE00000F014F82070641C681EC5B2002DF6D1F5
:101EF00070BD70B504460D4644F0800000F006F851
:101F0000552000F003F8287070BD000001B582B0C4
:101F10004FF47A70012301AA02A90090024807F049
:101F200059F99DF804000EBD0812002010B50246B4
:101F30001378DB00547843EA6410B0F5806F02DB5D
:101F4000A0F5006318B200EE100AF8EEC00AB4EE75
:101F5000001AB3EE070A00EE810A81ED000A10BDF7
:101F600070B505460C462846FFF7D0FF2046FFF720
:101F7000CDFF70BD10B52DED068B7A4890EDBE0AF1
:101F8000D0EDD90A30EE200ADFED770A20EE200AE4
:101F9000F0EE000A80EE201AB0EE418A73484068E5
:101FA00080ED008A6F4890ED990A7048406880ED96
:101FB000010A6C48D0F8080900EE100AB8EE400A91
:101FC000DFED6B0A20EE200A6848D0F8000180EDB2
:101FD000010A66480AF070F86448D0F8E80090ED0D
:101FE000000A604880ED980A6048D0F8E80090ED5B
:101FF000010A5C4880ED9A0A90ED930A10EE101ADF
:1020000008461AF00FFD41EC1A0BB0EE4A0AF0EE4A
:102010006A0A13F051FEB0EE409AF0EE609A9FED1E
:10202000550B53EC102B51EC190B19F0C1FE30D2AB
:102030004C4890ED980A10EE101A08461AF0F2FC7F
:1020400041EC1A0BB0EE4A0AF0EE6A0A13F034FEC5
:10205000B0EE409AF0EE609A9FED480B53EC102BD7
:1020600051EC190B19F0A4FE13D23E48D0ED980A9A
:10207000D0F8080900EE100AB8EE400A60EE800AB7
:10208000384890ED960A9FED3A1A00EE810A80EDED
:10209000960A002400BF5FE004EBC40000EB40019F
:1020A000384800EB810090ED000ADFED370A30EE92
:1020B000C00A2C48D0EDA10A30EE600A04EB4401BE
:1020C00000F5627000EBC10080ED000A04EBC40073
:1020D00000EB40012B4800EB810090ED010AB1EECE
:1020E000400A2048D0EDA20A30EE600A04EB440119
:1020F00000F5627000EBC10080ED010A194890ED17
:10210000960A04EB440100F5627000EBC10080ED1B
:10211000020A144890ED980A04EB440100F562703D
:1021200000EBC10080ED030A0E4890EDA10A04EB1C
:10213000440100F5627000EBC10080ED040A09481B
:1021400090EDA20A04EB440100F5627000EBC100BF
:1021500080ED050A601CC4B2022C9DDBBDEC068B31
:1021600010BD0000089600202DB29D3DD4940020A3
:102170006F12833A00000040E17A843F000000A023
:102180009999E93FB8980020DB0FC93F00BFFEE7EF
:1021900010B5024804F046FA10BD00002C100020D3
:1021A00010B5024804F03EFA10BD000054100020A3
:1021B000F8B504461425206804F01BFA064603E02F
:1021C000206804F016FA0646032E04D2281EA5F154
:1021D0000101CDB2F4D16B4604F11C02211D20682F
:1021E00004F03AF8F8BD0346042B15D007DC7BB1A8
:1021F000012B0ED0022B0DD0032B12D10BE0202B84
:102200000BD0212B0AD0222B09D0232B09D107E098
:1022100008E007E006E005E004E003E002E001E09A
:1022200000E000BF00BF00207047002070470000A2
:1022300010B50022044905480FF0FFFD044903488A
:102240000FF0F5FD002010BD3C280020981700205D
:102250003C20002070B504460D46214603480FF08F
:10226000E6FD02480FF0C2FD002070BD9817002067
:102270002DE9F04104460D4600260A48D0F8907238
:10228000D7F8140210B10120BDE8F0812A4621469A
:1022900004480FF0D2FD03480FF04AFE06463046D0
:1022A000F2E700009817002001B52DED020BA2B057
:1022B00023981AF0B7FBCDE90A019DED0A0B13F044
:1022C00007FD8DED0C0B9FEDFE0B53EC102B9DEDE0
:1022D0000C0B51EC100B19F0A7FDCDE90E019DED93
:1022E0000E0B51EC100B19F03BF8219022981AF0CC
:1022F00099FBCDE90A019DED0A0B13F0E9FC8DED88
:102300000C0B9FEDEF0B53EC102B9DED0C0B51ECD8
:10231000100B19F089FDCDE90E019DED0E0B51EC6E
:10232000100B19F01DF8209023981AF07BFBCDE9D3
:1023300008019DED080B13F0B3FB8DED0A0B9FED2B
:10234000E00B53EC102B9DED0A0B51EC100B19F028
:102350006BFD9FEDDD0B53EC102BCDE90C019DEDDA
:102360000C0B51EC100B19F05DF9CDE90E019DED50
:102370000E0B51EC100B18F0F3FF1F9022981AF07F
:1023800051FBCDE90A019DED0A0B13F089FB8DEDA0
:102390000C0B9FEDCB0B53EC102B9DED0C0B51EC6C
:1023A000100B19F041FDCDE90E019DED0E0B51EC26
:1023B000100B18F0D5FF1E909DED1F0ADDED1E0AD3
:1023C00030EE600A20EE000ADDED210A9DED201AB4
:1023D00070EEC11ADDED210A9DED201A70EEC10AE2
:1023E00001EEA00A8DED0B0A0B981AF01BFBCDE94C
:1023F0000C019DED0C0B13F097FD8DED0E0B9DED7B
:102400000E0B51EC100B18F0ABFF1D909DED1F0A49
:10241000DDED1E0A30EE600ADFEDAD0A20EE200A87
:102420008DED1C0A9DED210ADDED200A30EE600ADB
:10243000DFEDA70A20EE200A8DED1B0A9DED1D0A97
:10244000DFEDA40A40EE000A9FEDA20A30EEC00ABA
:102450008DED1A0A9DED1C0ADDED1A0A30EE200AF8
:102460008DED070A07981AF0DDFACDE90A019DED16
:102470001C0A20EE000ADDED1B0A00EEA00ADDEDCD
:102480001A0A00EEE00A8DED010A01981AF0CAFA64
:10249000CDE902019DED020B13F046FD8DED060B1B
:1024A0001B981AF0BFFACDE904019DED060B53EC21
:1024B000102B9DED040B51EC100B19F0B3F8CDE986
:1024C00008019DED0A1B9DED080B12F0E1FF8DED5B
:1024D0000C0B9FED810B53EC102B9DED0C0B51EC75
:1024E000100B19F0A1FCCDE90E019DED0E0B51EC86
:1024F000100B18F035FF179017981AF093FACDE9E2
:1025000002019DED020B13F0CBFA8DED040B9FED54
:10251000740B53EC102B9DED040B51EC100B19F0C8
:1025200083FCCDE908019DED1E0ADDED1F0A30EEAA
:10253000600A8DED050A05981AF074FACDE90601D6
:102540009DED080B53EC102B9DED060B51EC100B81
:1025500019F068F8CDE90C0117981AF063FACDE983
:1025600002019DED020B13F0B3FB8DED040B9FED0B
:102570005C0B53EC102B9DED040B51EC100B19F080
:1025800053FCCDE90801DDED200A9DED210A30EE76
:10259000C00A8DED050A05981AF044FACDE9060146
:1025A0009DED080B53EC102B9DED060B51EC100B21
:1025B00019F038F8CDE90A019DED0C1B9DED0A0BD1
:1025C00012F066FF8DED0E0B9DED0E0B51EC100B16
:1025D00018F0C6FE169017981AF024FACDE90601F5
:1025E0009DED060B13F05CFA8DED080B9FED3C0B97
:1025F00053EC102B9DED080B51EC100B19F014FC53
:10260000CDE90C0122981AF00DFACDE906019DEDF5
:10261000060B13F045FA8DED080B9FED290B53ECDB
:10262000102B9DED080B51EC100B19F0FDFBCDE9C3
:102630000A019DED0C0B53EC102B9DED0A0B51EC98
:10264000100B18F0EFFFCDE90E019DED0E0B51ECD4
:10265000100B18F085FE199017981AF0E3F9CDE9E0
:1026600006019DED060B13F033FB8DED080B9FED7E
:102670001C0B53EC102B9DED080B51EC100B19F0BB
:10268000D3FBCDE90C0122981AF0CCF9CDE9060173
:102690009DED060B13F01CFB8DED080B9FED080B59
:1026A00053EC102B9DED080B51EC100B19F0BCFBFB
:1026B000CDE90A019DED0C0B53EC102B14E000004A
:1026C000000000C01E85CB3F00000000000000009D
:1026D0009318043FB452883D000000000000004001
:1026E000000000601283D03F9DED0A0B51EC100BEF
:1026F00018F098FFCDE90E019DED0E0B51EC100B7B
:1027000018F02EFE18909DED190ADFEDFE0A30EE4E
:10271000600A20EE000ADDED180A00EEA00A8DED39
:102720000B0A0B981AF07EF9CDE90C019DED0C0B0C
:1027300013F0FAFB8DED0E0B9DED0E0B51EC100B13
:1027400018F00EFE15909DED190ADFEDEE0A30EE41
:10275000600A8DED090A09981AF064F9CDE90C01B7
:1027600018981AF05FF9CDE90A019DED0C1B9DED5B
:102770000A0B12F08DFE8DED0E0B9DED0E0B51EC44
:10278000100B18F0EDFD14909DED160ADDED170A03
:1027900030EE600A8DED070A07981AF043F9CDE98B
:1027A00008019DED080B13F093FA8DED0C0B9DEDD8
:1027B000220ADDED170A30EE600A8DED030A039858
:1027C0001AF030F9CDE904019DED040B13F080FA05
:1027D0008DED080B9DED140ADDED160A30EE600A52
:1027E0008DED010A01981AF01DF9CDE902019DED68
:1027F000020B13F06DFA8DED040B1FED4F0B53EC34
:10280000102B9DED040B51EC100B19F00DFBCDE9D5
:1028100006019DED080B53EC102B9DED060B51ECC2
:10282000100B19F001FBCDE90A019DED0C0B53ECE7
:10283000102B9DED0A0B51EC100B19F025F8CDE98A
:102840000E019DED0E0B51EC100B18F089FD13904D
:102850009DED160ADDED170A30EE600A8DED070AD0
:1028600007981AF0DFF8CDE908019DED080B13F089
:102870002FFA8DED0C0BDDED160A9DED230A30EEDF
:10288000C00A8DED030A03981AF0CCF8CDE90401D3
:102890009DED040B13F01CFA8DED080B9DED140A51
:1028A000DDED170A30EE600A8DED010A01981AF08D
:1028B000B9F8CDE902019DED020B13F009FA8DED97
:1028C000040B1FED810B53EC102B9DED040B51EC11
:1028D000100B19F0A9FACDE906019DED080B53EC98
:1028E000102B9DED060B51EC100B19F09DFACDE964
:1028F0000A019DED0C0B53EC102B9DED0A0B51ECD6
:10290000100B18F0C1FFCDE90E019DED0E0B51EC3F
:10291000100B18F025FD12909DED160ADDED170A3B
:1029200030EE600A8DED030A03981AF07BF8CDE9CA
:1029300004019DED040B13F0CBF98DED080B1598F8
:102940001AF070F8CDE906019DED080B53EC102B41
:102950009DED060B51EC100B19F066FACDE90C0158
:102960009DED220ADDED170A30EE600A8DED030AB7
:1029700003981AF057F8CDE904019DED040B13F00C
:10298000A7F98DED080B9DED140ADDED160A30EE6A
:10299000600A8DED010A01981AF044F8CDE90201B0
:1029A0009DED020B13F07CF88DED040B1FEDBC0BBD
:1029B00053EC102B9DED040B51EC100B19F034FA75
:1029C000CDE906019DED080B53EC102B9DED060B98
:1029D00051EC100B19F028FACDE90A019DED0C0B12
:1029E00053EC102B9DED0A0B51EC100B18F04CFF23
:1029F000CDE90E019DED0E0B51EC100B18F0B0FC63
:102A00001190DDED160A9DED170A30EEC00A8DED2E
:102A1000030A03981AF006F8CDE904019DED040BB2
:102A200013F056F98DED080B159819F0FBFFCDE961
:102A300006019DED080B53EC102B9DED060B51ECA0
:102A4000100B19F0F1F9CDE90C019DED160ADDED41
:102A5000230A30EE600A8DED030A039819F0E2FFB5
:102A6000CDE904019DED040B13F032F98DED080B57
:102A70009DED140ADDED170A30EE600A8DED010AB6
:102A8000019819F0CFFFCDE902019DED020B13F083
:102A900007F88DED040B1FEDF60B53EC102B9DED9D
:102AA000040B51EC100B19F0BFF9CDE906019DEDB7
:102AB000080B53EC102B9DED060B51EC100B19F08D
:102AC000B3F9CDE90A019DED0C0B53EC102B9DEDF4
:102AD0000A0B51EC100B18F0D7FECDE90E019DED5D
:102AE0000E0B51EC100B18F03BFC1090249913982E
:102AF0000860249912984860249911988860249954
:102B0000109801E000000000C86025B000BD90ED05
:102B1000000AD1ED000A20EE200AD0ED010A91ED65
:102B2000011A00EE810AD0ED020A91ED021A00EEC0
:102B3000810AD0ED030A91ED031A00EE810AD0ED6F
:102B4000040A91ED041A00EE810AD0ED050A91ED18
:102B5000051A00EE810A82ED000A90ED060AD1ED19
:102B6000000A20EE200AD0ED070A91ED011A00EECE
:102B7000810AD0ED080A91ED021A00EE810AD0ED2B
:102B8000090A91ED031A00EE810AD0ED0A0A91EDCF
:102B9000041A00EE810AD0ED0B0A91ED051A00EE41
:102BA000810A82ED010A704710B52DED068BB0EE5B
:102BB000409AB0EE608AF0EE418AB0EE680A13F0F7
:102BC0000DFADFED100A60EE209AB0EE480A12F01E
:102BD000CBFFB0EE40AAB0EE680A12F0C5FFCAEE15
:102BE00000AAB0EE480A13F0F9F99FED061AF0EECC
:102BF000490A51EE000AB0EE690A0AEEE00ABDEC9D
:102C0000068B10BD0C02033F11B52DED020B2DED0F
:102C1000108B89B0B0EE60AA04469FED670A8DED77
:102C2000080AF0EE4AAA9FED640AF4EEC0AAF1EE9B
:102C300010FA03D29FED600AF0EE40AA9DED190A4A
:102C400012F092FFDFED5D0AF0EE608A4AEE808AB4
:102C50009DED190A13F0A0F820EE2A8A9FED580A7C
:102C600038EE80BA9FED570AF0EE40BA48EEE8BA67
:102C70009FED550AB0EE409A08EE489A9FED520A31
:102C8000F0EE40DA48EE08DA9FED500A2DEE800AA9
:102C9000F0EE000A68EEA00A60EEA80A00EE890ACB
:102CA0000BEEEB0AB0EE40CA09EE49CAB5EEC0CA57
:102CB000F1EE10FA03D29FED410AB0EE40CAB0EE39
:102CC0004C0A13F06EF9DFED420AB0EE40EA00EE76
:102CD00088EAF0EE49EA5BEE0BEA8EEE2E0A8DED05
:102CE000010A9DED010A12F029FEF0EE000A20EE25
:102CF00020FADFED38FA9FED310A70EE689ADFEDC9
:102D000036CA9FED2F0A38EE800ADFED2C0A30EE2E
:102D1000600A8DED070A2FEEAF0A09EEE90A08EE08
:102D2000480A8DED060A29EEA90A0CEEEC0A08EE17
:102D3000080A8DED050A9DED060ADDED050A20EE77
:102D400020DAB5EEC0DAF1EE10FA03D29FED1B0ADD
:102D5000B0EE40DAB0EE4D0A13F023F9DFED1C0AB5
:102D600010EE880A8DED040A9DED070A20EE000A98
:102D700008EE080ADFED140A70EE600ACDED030AD2
:102D80009DED040ADDED030A80EE201A8DED011A97
:102D90009DED010A12F0D2FDF0EE000A20EE200AAD
:102DA0008DED020A84ED00FA9DED020A84ED010A20
:102DB00009B0BDEC108B1EBD77CC2B32000000009B
:102DC000F6285C3E6D563D3DB452883D6D56BD3D86
:102DD000F628DC3E0E2DF23EC020303D86B090ED50
:102DE000002A8DED022A90ED022A8DED032A90ED46
:102DF000012A8DED042A90ED032A8DED052A8DED33
:102E0000000ACDED010A9DED022ADDED002A22EE39
:102E1000222ADDED032A9DED013A02EE832AB0EE6F
:102E2000421A9DED042ADDED002A22EE222ADDED74
:102E3000052A9DED013A02EE832AF0EE421A81ED59
:102E4000001AC1ED011A06B0704700002DE9F047E5
:102E500004460F4615461E46DDE908894FF0000A74
:102E6000012C02D1DFF84CA003E0022C01D1DFF8E5
:102E700048A0BAF1000F01D1BDE8F0870F48C0F8B3
:102E800000A04760280A0D49087708464577310AAF
:102E90008177C6774FEA182180F8201080F82180CA
:102EA0004FEA192180F8221080F82390FFF780F96B
:102EB00000BFE1E72C1000205410002098080020EB
:102EC00010B51448007A0D281CD2DFE800F01C1D54
:102ED00018070D1B1B0F1B0A12150E0000F098FDA2
:102EE00015E000F071FE12E000BF00BF00F0F6FD3B
:102EF0000DE000F0ABFD0AE000F084FE07E000F01A
:102F000063FF04E000BF00BF01F04CF800BF00BF4A
:102F100010BD00000896002010B52DED048B02F0C6
:102F2000F3FE30B13E48407A40F004003C4948721C
:102F300005E03B48407A20F004003949487238489F
:102F4000406830B93648407A40F008003449487249
:102F500005E03348407A20F00800314948720024E7
:102F60002AE004EBC4022E48103000EBC20090EDC2
:102F7000060A10EE101A084619F054FD41EC190B20
:102F8000B0EE490AF0EE690A12F096FEB0EE408A01
:102F9000F0EE608A9FED230B53EC102B51EC180BD5
:102FA00019F0E1F806D21E48407A40F001001C49B1
:102FB000487203E0601CC4B2042CD2DB00BF184886
:102FC000007A18B11648007A012826D1174890EDEA
:102FD000C30A10EE101A084619F024FD41EC190B33
:102FE000B0EE490AF0EE690A12F066FEB0EE408AD1
:102FF000F0EE608A9FED0E0B53EC102B51EC180B8A
:1030000018F000FE09D00C480AF0A8FE0A48E43087
:103010000AF0A4FE09480AF0A1FEBDEC048B10BD25
:10302000089600200000000000003940049A0020AB
:103030000000000000000000FC9C00202C9E0020EE
:1030400010B5B4B015F0A2F8D1490860D1A00DF0C8
:10305000BBFECF4948600020D1490870022048706B
:10306000032088700020C8700121B7EE000A0423F5
:103070000A46CDE900100321C54810300AF09AFB3A
:1030800000200121B7EE000A04230A46CDE9001012
:103090000221BF4858300AF08DFB0020411EB7EED8
:1030A000000A04230122CDE900101946B848A030D7
:1030B0000AF080FB0020411EB7EE000A0423012223
:1030C000CDE900101146B248E8300AF073FB002049
:1030D0000121B7EE000A0B460222CDE900100321C0
:1030E000B0480AF067FB0020411EB7EE000A01233A
:1030F0000222CDE900100421AA4848300AF05AFB08
:103100004FF4B671A848FEF785F89821A54890308D
:10311000FEF780F800219E4880F8181380F8841389
:10312000A24A07CA31AB07C3A0490C31D1E900025A
:103130008968CDE92F212E90F6EE000AB1EE040A3F
:1031400031AA00219A480AF02FFEF6EE000AB0EEEE
:10315000000A2EAA002196484C300AF025FE934A18
:10316000183207CA2BAB07C3DFED920AB7EE080A85
:103170002BAA00218E4898300AF016FE8B4A243282
:1031800007CA28AB07C3894A303207CA25AB07C331
:10319000DFED890A9FED890A28AA00218448E430DE
:1031A0000AF002FE9FED850A814880ED3D0ADFEDC1
:1031B000820A9FED830A25AA002100F5BE700AF05D
:1031C000F3FD9FED7E0A7A4880ED630ADFED7A0A0F
:1031D0009FED7B0A25AA002100F5E4700AF0E4FDCA
:1031E0009FED760A724880ED760A704A3C3207CA33
:1031F00022AB07C3DFED700A9FED720A22AA0021FD
:1032000071480AF0D1FD694A483207CA1FAB07C3AB
:10321000DFED690A9FED6D0A1FAA00216A484C3054
:103220000AF0C2FDDFED640A9FED680A1FAA0021C3
:10323000654898300AF0B8FD5C4A543207CA1CABA6
:1032400007C35A4A603207CA19AB07C3DFED600AE9
:103250009FED600A1CAA00215B48E4300AF0A4FD3F
:10326000DFED5B0A9FED5B0A19AA00215A480AF0BC
:103270009BFD4E4A6C3207CA16AB07C3DFED4E0A00
:10328000B1EE080A16AA002153484C300AF08CFD12
:103290009FED520A5048983009F04AFB9FED4F0AC3
:1032A0004D48A03009F044FB9FED4C0A4A48A83035
:1032B00009F03EFB9FED490A4748B03009F038FB62
:1032C0009FED460A4448B83009F032FB9FED430AAF
:1032D0004148C03009F02CFB9FED400A3E48C83001
:1032E00009F026FB9FED3D0A3B48D03009F020FB5A
:1032F000B6EE000A3848D83009F01AFB0223002243
:103300001946374808F052FB284B78330FCB12ACE4
:103310000FC4264B8833D3E901211868DB68CDE957
:103320001013CDE90E02214B9833D3E9012118681F
:10333000DB68CDE90C13CDE90A021C4BA8330FCB97
:1033400006AC0FC4194BB8330FCB02AC0FC42448E2
:10335000D0F8000112A91EC91EC02148D0F8F800FB
:1033600006A91EC91EC01E48D0F814010EA91EC908
:103370001EC01B48D0F818010AA91EC91EC0184853
:10338000D0F80C0102A91EC91EC034B010BD000047
:1033900008960020696D755F64617461000000002B
:1033A0001C9F00203897002060980020F4D201086C
:1033B000049A0020CDCC4C3F00000000CDCCCC3D89
:1033C000000020420000FA44FC9C0020000048431A
:1033D0000000FA4300803B452C9E00206666663F55
:1033E000D49400201CB517F073FD1349D1F80419CB
:1033F000401A1149C1F8080917F06AFD0E49C1F8D1
:10340000040910F037FF10F00BFC10F0CDF910F0AC
:10341000E5FA10F04FFFFEF7ADFD074890EDB81A42
:10342000F0EE410A90EDB71AB0EE410A694600F598
:103430003F7002F065FB1CBD0896002010B502A18C
:1034400006480AF041FD10BD636861737369735FDC
:103450006664625F7370656564000000C099002057
:1034600030B52DED048B83B0002008EE900A0024C7
:1034700009EE100A08EE100A0025FE480068B0F9AF
:103480000600142806DCFB480068B0F9060010F1BD
:10349000140F06DAF7480068B0F9060008EE900A43
:1034A00002E0002008EE900AF2480068B0F904003B
:1034B000142806DCEF480068B0F9040010F1140F7E
:1034C00004DAEC480068B0F9044000E00024E94860
:1034D0000068B0F90000142806DCE6480068B0F97E
:1034E000000010F1140F06DAE2480068B0F900009D
:1034F00009EE100A02E0002009EE100ADD4800681B
:10350000B0F90200142806DCDA480068B0F90200BD
:1035100010F1140F06DAD7480068B0F9020008EE7F
:10352000100A02E0002008EE100AD2480068B0F944
:103530000800142806DCCF480068B0F9080010F134
:10354000140F04DACB480068B0F9085000E00025F9
:103550000020009001900290B8EEE80ADFEDC60A64
:1035600020EE200AF0EE0C0A20EE200A8DED000A73
:103570009FEDC20A8DED010A604200EE100AB8EE1E
:10358000C00ADFEDBD0A20EE200AF1EE080A20EEA7
:10359000200A8DED020AB748007A07280AD004DC19
:1035A000022858D0042864D120E0082845D00C28EF
:1035B0005FD10DE09DED000AAE4880ED930A9FEDCE
:1035C000AF0A80ED940A9DED020A80ED950A5EE057
:1035D0009DED000AA74880ED930A9FEDA80A80EDB3
:1035E000940A9DED020A80ED950A50E001F0E6FE96
:1035F000F0EE409AB0EE690A12F0B6FADDED000A7C
:1036000020EE200A9B4880ED930A9FED9C0A80EDF6
:10361000940A01F0D9FE28B19FED980A954880EDF3
:10362000950A09E0DFED950AB1EE690A94480AF0BF
:103630008FFA904880ED950A29E09DED000A8D48AB
:1036400080ED930A9FED8D0A80ED940A9DED020AAC
:1036500080ED950A1BE09FED890A864880ED930A6C
:103660009FED860A80ED940A9FED840A80ED950A0D
:103670000DE09FED820A7F4880ED930A9FED7F0A5F
:1036800080ED940A9FED7D0A80ED950A00BF00BF92
:10369000002038E09FED790A00EB4002794901EB08
:1036A000C20181ED000A9FED750A00EB40027549E9
:1036B00001EBC20181ED010A9FED700A00EB4002AF
:1036C000704901EBC20181ED020A6A4991ED930A4A
:1036D00000EB40026B4901EBC20181ED030A9FED53
:1036E000670A00EB4002674901EBC20181ED040A61
:1036F0009FED620A00EB4002624901EBC20181EDDD
:10370000050A411CC8B20228C4DB5A48007A801E50
:103710000B2871D2DFE800F006703070706F7070A7
:10372000113231009FED580A584880ED000A9FED94
:10373000530A574880ED000A69E09FED560A534846
:1037400080ED000AB8EEC80ADFED4B0A20EE200A31
:10375000DFED510A20EE200A464880ED830AB8EEDC
:10376000C80ADFED450A20EE200ADFED4B0A20EE05
:10377000200A80ED890A00BF00BF00BFB8EEC80A6A
:10378000DFED3D0A60EE200A9FED441A9FED3B0AF3
:1037900000EE810A3E4880ED000AB8EEC90ADFED6E
:1037A000360A60EE200AB0EE081AB5EE000A00EE06
:1037B000810A364880ED000A2E48807A012805D11A
:1037C0009FED370A314880ED000A12E02948807ADF
:1037D000022805D19FED330A2C4880ED000A08E04D
:1037E0002448807A032804D19FED2F0A274880EDD2
:1037F000000A0CE000E00AE09FED2C0A244880ED6E
:10380000000A9FED240A214880ED000A00BF00BF96
:103810009FED241ADFED220A1C4890ED000A14F0F7
:1038200075FB1A4880ED000A9FED211ADFED210A91
:10383000174890ED000A14F069FB154880ED000A66
:10384000124890ED000A0B4880ED8F0A0F4890ED6A
:10385000000A084880ED900A0D4890ED000A0548DE
:1038600080ED910A0A4890ED000A024880ED920A24
:10387000684221E0089600200C98C63A000000003B
:10388000789E0020149800207B142E3EB002002069
:10389000AC0200208FC2F53D9A99993E6666663F5C
:1038A000AE47E13D3333B33E0AD7233EDB0FC93F7A
:1038B000F74382404AE06DBF00EE900AF8EEE00A5E
:1038C0001FED131A60EE810A1FED0D1A60EE810ADA
:1038D000B0EE600A1FED101ADFED050A14F016FBBA
:1038E000044880ED7D0A03B0BDEC048B30BD0000C0
:1038F0009A9999BE0896002010B50DF0A7F80DF022
:10390000D3F910BD10B53D48407A00F0040018B15D
:1039100001203A49087210BD3848407A00F008008A
:1039200018B1012035490872F5E73448407A00F0B3
:10393000010018B1012031490872ECE72F48007AE4
:10394000032804D12E4890F8280000B9E3E72C485A
:1039500090F82900D8B10020294981F829000320D6
:10396000264908720020264981F8280003F0ACFCA3
:103970000446002008E00022214924310A5410396D
:1039800041F82040411CC8B20428F4DBC3E71B48BF
:103990000068807A012802D1184908722BE0174884
:1039A0000068807A032803D10B201449087222E0B2
:1039B00012480068807A02281DD110480068B0F9CA
:1039C000000040F28A21884212DD0C480068B0F9FC
:1039D000020088420CDD09480068B0F90400494241
:1039E000884205DA05480068B0F90600884202DB23
:1039F00002200249087200BF8DE7000008960020EF
:103A0000A89400209FED010A70470000000000000C
:103A1000B8EE000A0B4880ED130AB0EE000A80ED04
:103A2000250AB0EE000A80ED370AB8EE000A80EDF4
:103A3000490A9FED050A80ED5A0A9FED030A80EDC1
:103A40006C0A7047089600200000000010B508F0CE
:103A500039FE08F045FD204890EDF30AF7EE000A24
:103A600020EE200A80ED120A90EDF40AF7EE000A2B
:103A700020EE200A80ED240A90EDFA0AFFEE000AFB
:103A800020EE200A80ED360A90EDFB0AFFEE000AD8
:103A900020EE200A80ED480A002419E004EBC4015E
:103AA0000D48103000EBC100D0ED0E0AB0EE600AF8
:103AB000B1EE0C1AF9EE0C0A14F028FA04EBC4016A
:103AC0000548103000EBC10080ED0E0A601CC4B246
:103AD000042CE3DB10BD00000896002010B508F0B0
:103AE000F1FD08F0FDFC374890EDF30AF7EE000A0F
:103AF00020EE200A80ED120A90EDF40AF7EE000A9B
:103B000020EE200A80ED240A90EDFA0AFFEE000A6A
:103B100020EE200A80ED360A90EDFB0AFFEE000A47
:103B200020EE200A80ED480A002436E02548807AFD
:103B3000022818D104EBC4012248103000EBC10068
:103B4000D0ED0E0AB0EE600AB3EE041AFBEE040AE2
:103B500014F0DCF904EBC4011A48103000EBC1008A
:103B600080ED0E0A17E004EBC4011648103000EB9C
:103B7000C100D0ED0E0AB0EE600AB1EE0C1AF9EEFB
:103B80000C0A14F0C3F904EBC4010E48103000EB2A
:103B9000C10080ED0E0A601CC4B2042CC6DB0948CB
:103BA00090EDF70AF7EE000A20EE600A80ED5A0A5F
:103BB00090EDFE0AFFEE000A20EE600A80ED6C0A2E
:103BC00010BD000008960020B8EE000A0B4880EDFA
:103BD000130AB0EE000A80ED250AB0EE000A80ED6F
:103BE000370AB8EE000A80ED490A9FED050A80ED1C
:103BF0005A0A9FED030A80ED6C0A70470896002070
:103C0000000000001FB59FED6A0A6A4880ED120AA5
:103C10009FED670A80ED240A9FED650A80ED360A64
:103C20009FED630A80ED480A9FED610A80ED130A5B
:103C30009FED5F0A80ED250A9FED5D0A80ED370A52
:103C40009FED5B0A80ED490A90ED8F1AF0EE410A74
:103C500090ED911AB0EE410A02A8FEF7D5FF554843
:103C600090ED901AF0EE410A90ED921AB0EE410AF2
:103C70006846FEF7C9FF9DED020A10EE101A0846CD
:103C800011F0F9F9E8BB9DED030A10EE101A084691
:103C900011F0F1F9A8BB9DED000A10EE101A0846CC
:103CA00011F0E9F968BB9DED010A10EE101A084603
:103CB00011F0E1F928BBDDED020AB0EE600A012146
:103CC0000846DFED3D0A15F0A1FF3A4880ED140AE1
:103CD000DDED030AB0EE600A01210846DFED370A88
:103CE00015F094FF334880ED260ADDED000AB0EEB2
:103CF000600A0121881EDFED300A15F087FF2D488C
:103D000000E00EE080ED380ADDED010AB0EE600A59
:103D10000121881EDFED260A15F078FF254880ED89
:103D20004A0A2448D0ED140AB0EE600A9FED241A26
:103D3000DFED240A14F0EAF81E4880ED140AD0EDF5
:103D4000260AB0EE600A9FED1E1ADFED1E0A14F07F
:103D5000DDF8184880ED260AD0ED380AB0EE600A8A
:103D60009FED171ADFED170A14F0D0F8114880ED17
:103D7000380AD0ED4A0AB0EE600A9FED111ADFED65
:103D8000110A14F0C3F80B4880ED4A0A90EDF70AC7
:103D9000F7EE000A20EE600A80ED5A0A90EDFE0A66
:103DA000FFEE000A20EE600A80ED6C0A1FBD0000E5
:103DB0000000000008960020DB0FC9BF0000008053
:103DC00033331340333313C000B52DED028B85B070
:103DD0006D4890ED8F1AF0EE410A90ED911AB0EE19
:103DE000410A03A8FEF710FF674890ED901AF0EE25
:103DF000410A90ED921AB0EE410A01A8FEF704FFC5
:103E00009DED030A10EE101A084611F034F9E8BBD4
:103E10009DED040A10EE101A084611F02CF9A8BB0B
:103E20009DED010A10EE101A084611F024F968BB46
:103E30009DED020A10EE101A084611F01CF928BB7D
:103E4000DDED030AB0EE600A01210846DFED4F0AFE
:103E500015F0DCFE4C4880ED140ADDED040AB0EEEE
:103E6000600A01210846DFED4A0A15F0CFFE4648F8
:103E700080ED260ADDED010AB0EE600A0121881E00
:103E8000DFED420A15F0C2FE3F4800E00EE080ED93
:103E9000380ADDED020AB0EE600A0121881EDFED6E
:103EA0003D0A15F0B3FE384880ED4A0A3648D0ED99
:103EB000140AB0EE600A9FED381ADFED380A14F0EC
:103EC00025F8314880ED140AD0ED260AB0EE600ADC
:103ED0009FED311ADFED310A14F018F82A4880ED11
:103EE000260AD0ED380AB0EE600A9FED2B1ADFEDFE
:103EF0002B0A14F00BF8244880ED380AD0ED4A0A5A
:103F0000B0EE600A9FED241ADFED240A13F0FEFFE5
:103F10001D4880ED4A0ADFED1F8AD0EDA10AB0EE00
:103F2000600ADFED1C0A00F2F46009F011FE1C4883
:103F300090EDC70A30EE288AB7EE001A28EE011A73
:103F4000F0EE410A104890ED511AB0EE410A00F52A
:103F5000FB6009F0FDFD0C4880ED5D0ABFEE001A24
:103F600028EE011AF0EE410A90ED631AB0EE410A14
:103F700000F6240009F0ECFD034880ED6F0A05B05F
:103F8000BDEC028B00BD000008960020DB0FC9BF0E
:103F9000000000800000000033331340333313C0AF
:103FA000049A002010B59FED220A224880ED120AE3
:103FB0009FED1F0A80ED240A9FED1D0A80ED360A51
:103FC0009FED1B0A80ED480A9FED190A80ED130A48
:103FD0009FED170A80ED250A9FED150A80ED370A3F
:103FE0009FED130A80ED490A9FED110A80ED5B0AEF
:103FF0009FED0F0A80ED6D0AD0ED510AB0EE600A18
:10400000DFED0B0A00F5E86009F0A2FD094880ED3C
:104010005D0AD0ED630AB0EE600ADFED050A00F23A
:104020008C7009F095FD034880ED6F0A10BD00000B
:10403000000000000896002010B5D0ED001AB6EE82
:10404000002A40EE021A71EEA01AC0ED001AD1ED5E
:10405000001AB6EE002A40EE421A71EEE01AC1EDE7
:10406000001AD0ED001A91ED002AF4EEC21AF1EE1A
:1040700010FA01D2044600E00C462346D0ED001AA7
:1040800091ED002AF4EEC21AF1EE10FA01D20C46BC
:1040900000E004462246DFED151AB0EE611AD3EDBA
:1040A000001A9FED132A72EE611AB0EE611AB5EE96
:1040B000C01AF1EE10FA0BDDD3ED001A71EE811A81
:1040C000C3ED001AD2ED001A71EE811AC2ED001A8A
:1040D000D2ED001A9FED072AF4EEC21AF1EE10FAA3
:1040E00003DDDFED041AC2ED001A10BD0000000070
:1040F000AE47E13D3333B33E4A780B7842EA0322C0
:1041000000EE102AF8EE400A9FED261A70EEC10A62
:104110009FED241AC0EE811AF1EE000A61EEA00AAA
:104120009FED211A60EE810AC0ED070ACA788B78EC
:1041300042EA032200EE102AF8EE400A9FED191A17
:1041400070EEC10A9FED171AC0EE811AF3EE0E0A47
:1041500061EEA00AC0ED050A4A790B7942EA032212
:1041600000EE102AF8EE400A9FED0E1A70EEC10A1A
:10417000DFED0C1A80EEA11AF2EE080A61EE200AB9
:10418000C0ED060ACA798B7942EA032200EE102AB2
:10419000F8EE400AB2EE041AC0EE811AC0ED081A19
:1041A0007047000000FFFF46DA0F49401B48406897
:1041B00000F0006080B31A48406B006819498842DB
:1041C00005D94FF0006017494C3908601CE01448CD
:1041D000406B00681149B831884205D94FF0006042
:1041E0001049503908600FE00D48406B00680B49DA
:1041F0005831884204D94FF000600849C86003E094
:104200004FF000600549886005480068006840F488
:1042100000700349096808607047000000600240B0
:10422000D01000205864024010B5024802F010FD82
:1042300010BD0000D816002010B5FE48C06C006804
:10424000FD49884276D9FC4854380068F949C96C60
:104250000968FA4A914201D1202169E0F549C96C07
:104260000968F54A483A914201D1202160E0F149BC
:10427000C96C0968F14A6032914201D1202157E0AE
:10428000EC49C96C0968EC4A1832914201D12021ED
:104290004EE0E849C96C0968E84A1832914201D1F8
:1042A000C91445E0E349C96C0968E34A303A9142D0
:1042B00001D1C9143CE0DF49C96C0968DF4A783292
:1042C000914201D1C91433E0DA49C96C0968DA4A6C
:1042D0003032914201D1C9142AE0D649C96C09682B
:1042E000D64A3032914202D14FF4001120E0D14938
:1042F000C96C0968D04A183A914202D14FF40011B2
:1043000016E0CC49C96C0968CC4A9032914202D17E
:104310004FF400110CE0C749C96C0968C64A48321D
:10432000914203D14FF4001102E003E04FF000612D
:10433000084070E1BF48C06C0068C049A83188429D
:1043400076D9BD4858380068BA49C96C0968BB4A73
:10435000914201D1202169E0B649C96C0968B64A89
:10436000483A914201D1202160E0B249C96C096804
:10437000B24A6032914201D1202157E0AD49C96C67
:104380000968AD4A1832914201D120214EE0A94975
:10439000C96C0968A94A1832914201D1C91445E093
:1043A000A449C96C0968A44A303A914201D1C914A0
:1043B0003CE0A049C96C0968A04A7832914201D119
:1043C000C91433E09B49C96C09689B4A3032914259
:1043D00001D1C9142AE09749C96C0968974A30325B
:1043E000914202D14FF4001120E09249C96C096852
:1043F000914A183A914202D14FF4001116E08D49CA
:10440000C96C09688D4A9032914202D14FF4001173
:104410000CE08849C96C0968874A4832914203D147
:104420004FF4001102E003E04FF000610840F2E0B9
:104430008048C06C006881494831884276D97F48FD
:10444000103840687B49C96C09687C4A914201D1A7
:10445000202169E07749C96C0968774A483A914256
:1044600001D1202160E07349C96C0968734A603248
:10447000914201D1202157E06E49C96C09686E4A0A
:104480001832914201D120214EE06A49C96C096875
:104490006A4A1832914201D1C91445E06549C96C94
:1044A0000968654A303A914201D1C9143CE061493A
:1044B000C96C0968614A7832914201D1C91433E06C
:1044C0005C49C96C09685C4A3032914201D1C91417
:1044D0002AE05849C96C0968584A3032914202D1E1
:1044E0004FF4001120E05349C96C0968524A183A48
:1044F000914202D14FF4001116E04E49C96C09688F
:104500004E4A9032914202D14FF400110CE04949D9
:10451000C96C0968484A4832914203D14FF40011EE
:1045200002E003E04FF00061084074E043481038B7
:1045300000684049C96C0968404A914201D1202174
:1045400068E03C49C96C09683B4A483A914201D14C
:1045500020215FE03749C96C0968384A60329142CE
:1045600001D1202156E03349C96C0968324A18321A
:10457000914201D120214DE02E49C96C09682F4A92
:104580001832914201D1C91444E02A49C96C096822
:10459000294A303A914201D1C9143BE02549C96CFE
:1045A0000968264A7832914201D1C91432E0214982
:1045B000C96C0968204A3032914201D1C91429E0FE
:1045C0001C49C96C09681D4A3032914202D14FF42E
:1045D00000111FE01749C96C0968174A183A91423F
:1045E00002D14FF4001115E01249C96C0968134A51
:1045F0009032914202D14FF400110BE00D49C96C89
:1046000009680D4A4832914202D14FF4001101E08D
:104610004FF00061084000286FD00648C06C006869
:10462000054988427BD90348C06C00680349884229
:1046300008D105E0081200205864024010600240D2
:10464000202068E0FE48C06C0068FE49884201D125
:10465000202060E0FA48C06C0068FB49884201D124
:10466000202058E0F648C06C0068F6496031884266
:1046700001D120204FE0F248C06C0068F24948396F
:10468000884201D1C01446E0ED48C06C0068ED4995
:104690001831884201D1C0143DE0E948C06C00687F
:1046A000E9491831884201D1C01434E0E448C06CB3
:1046B0000068E4497831884201D1C0142BE0E04819
:1046C000C06C0068E0493039884202D14FF40010D4
:1046D00021E0DB48C06C0068DA493031884202D101
:1046E0004FF4001017E0D648C06C0068D64930314E
:1046F000884204D14FF400100DE0DFE10FE0D04814
:10470000C06C0068CF499031884202D14FF400104C
:1047100001E04FF00060CB49091F08606AE1C8481A
:10472000C06C0068C8494831884274D9C448C06C1C
:104730000068C5496039884201D1202066E0C04840
:10474000C06C0068BF49884201D120205EE0BC48AF
:10475000C06C0068BC49884201D1202056E0B848AE
:10476000C06C0068B7496031884201D120204DE01B
:10477000B348C06C0068B4494839884201D1C014BC
:1047800044E0AF48C06C0068AE491831884201D19E
:10479000C0143BE0AA48C06C0068AB49183188429D
:1047A00001D1C01432E0A648C06C0068A549783138
:1047B000884201D1C01429E0A148C06C0068A24918
:1047C0003039884202D14FF400101FE09C48C06C81
:1047D00000689C493031884202D14FF4001015E046
:1047E0009748C06C006898493031884202D14FF434
:1047F00000100BE09248C06C0068924990318842EA
:1048000002D14FF4001001E04FF000608D490839EB
:104810000860EFE0FFE78A48C06C00688A491839F1
:10482000884274D98648C06C0068874960398842DC
:1048300001D1202066E08248C06C0068814988422E
:1048400001D120205EE07E48C06C00687E4988422D
:1048500001D1202056E07A48C06C00687949603167
:10486000884201D120204DE07548C06C006876492F
:104870004839884201D1C01444E07148C06C0068D6
:1048800070491831884201D1C0143BE06C48C06CBB
:1048900000686D491831884201D1C01432E068487F
:1048A000C06C006867497831884201D1C01429E0A2
:1048B0006348C06C006864493039884202D14FF4C3
:1048C00000101FE05E48C06C00685E4930318842CD
:1048D00002D14FF4001015E05948C06C00685A49E5
:1048E0003031884202D14FF400100BE05448C06CC4
:1048F000006854499031884202D14FF4001001E021
:104900004FF0006050497039C86073E0FFE74C48D1
:10491000C06C00684C496039884201D1202066E0B3
:104920004748C06C00684749884201D120205EE0BA
:104930004348C06C00684449884201D1202056E0B9
:104940003F48C06C00683F496031884201D1202057
:104950004DE03B48C06C00683B494839884201D172
:10496000C01444E03648C06C0068364918318842AB
:1049700001D1C0143BE03248C06C006832491831A4
:10498000884201D1C01432E02D48C06C00682D4926
:104990007831884201D1C01429E02948C06C0068F0
:1049A00029493039884202D14FF400101FE02448D1
:1049B000C06C006823493031884202D14FF40010A6
:1049C00015E01F48C06C00681F493031884202D191
:1049D0004FF400100BE01A48C06C00681949903180
:1049E000884202D14FF4001001E04FF000601649F8
:1049F000703988601548007800F0020078B11348DB
:104A0000007820F00200114908700846007840F054
:104A100004000870012211460D4802F04DFC0D48BB
:104A2000007800F00200E0B10A48007820F00200AF
:104A3000084908700846007840F0040008700BE050
:104A40000812002010640240706002400D03002034
:104A5000000402400E03002001221021184802F039
:104A60002BFC1848007800F0020078B11548007857
:104A700020F00200134908700846007840F0040056
:104A80000870012210210E4802F016FC13F086FB7C
:104A90000D48007800F0040080B10B48007820F049
:104AA0000400094908700846007840F008000870C2
:104AB0000648006840F001000449086010BD00008D
:104AC000000002400F0300200D030020103C0140B5
:104AD00010B5024802F0BCF810BD00001816002006
:104AE00010B5024802F0B4F810BD000038170020DD
:104AF00010B5024802F0ACF810BD0000B815002057
:104B000001680A4BCAB2103AA3FB02321209084BE1
:104B10009B5CC365032A04D96FF30901091D8165F4
:104B200002E06FF309018165806D7047ABAAAAAA04
:104B300060CF0108014600208A6A8B69002B0FD0E4
:104B4000B3F5005F1DD08AB3012A30D0022A2ED0DF
:104B5000032A04D1C96A11F0807F00D00120704778
:104B60001AB1012A07D0022AF9D1C96A11F0807F4F
:104B7000F5D001207047C96AB1F1C07FFAD1012098
:104B800070475AB1012A0BD0022A07D0032AF7D165
:104B9000C96AB1F1C07FF3D101207047012070478D
:104BA000C96A11F0807FFAD001207047FFE7012029
:104BB000704710B4D0F800C0DCF8004024F4802422
:104BC000CCF80040D0F800C0CCF804308368402B0B
:104BD00005D0036899600068C26010BC7047036824
:104BE0009A600068C16010BC7047704730B50346DA
:104BF0000020CC7904F01F04022C00D14879104C1D
:104C0000A3420CD10F4C04EB00144D6825600D4CF1
:104C100004EB0014156865605568A5600EE00A4C49
:104C2000A3420BD1094C04EB00144D682560074CDE
:104C300004EB0014156865605568A56030BD000080
:104C40002C100020A4BE00205410002004BF00201F
:104C50002DE9F04705460C46164640F20122206831
:104C6000811A904239D021DC552861D00CDC5228C1
:104C70005BD004DC41287BD051287AD154E0532802
:104C800054D05428F9D152E0B0F5A17F75D006DC9C
:104C900056284ED0A0F241100028EED16CE0A0F2D0
:104CA000431000286AD00128E7D168E006291AD00D
:104CB00006DC06295DD2DFE801F08C111213141511
:104CC000092913D004DC07290ED00829D5D10CE01E
:104CD0000A290CD0FF297CD171E000BF00BF00BFC2
:104CE00000BF00BF00BF00BF00BF00BF00BF2078F3
:104CF000401E9B4908709B48854208D19A49984AB2
:104D0000127801EB0210314600F048F90AE09748AA
:104D1000854207D19649924A127801EB021031463A
:104D200000F03CF9BDE8F08700BF00BF00BF00BF46
:104D300000BF207851388F4908708A48854209D1D0
:104D40000978C1EB01118C4A02EB8100314600F079
:104D500051F90CE08548854209D186490978C1EBB3
:104D60000111864A02EB8100314600F043F9D9E790
:104D70002AE02EE001E001E000BF00BF00BF207884
:104D8000A0F241107E4908707648854209D1097821
:104D900001EB41017B4A02EB8100314607F074FCD4
:104DA0000CE07248854209D17549097801EB41014F
:104DB000754A02EB8100314607F066FCB2E73146E6
:104DC00072480CF023F8ADE73146714806F010FB4D
:104DD000A8E700BF00BF208800F4C0672088C0F3A8
:104DE00082182078C0F3C209207800F0070AB7F5CE
:104DF000806F04D040F20160874200D092E7B9F1A1
:104E0000020F00D08EE702F05FFA62490860B8F145
:104E1000010F06D0B8F1020F04D0B8F1030F7CD116
:104E200093E09AE0BAF1000F03D0BAF1010F75D107
:104E300059E0594831680160716841600088C0F3E9
:104E40000A005549A1F811000846B0F80100C0F366
:104E5000CA015148A0F81310B0F80300C0F30A01CA
:104E60004D48A0F815108088C0F3CA014A48A0F840
:104E70001710C088C0F30A014748A0F81910C0797C
:104E8000C0F3C1014448C176C079C0F34111424822
:104E90000177B0F81100A0F5806000B23E49A1F89A
:104EA00011000846B0F81300A0F5806001B23A483E
:104EB000A0F81310B0F81500A0F5806001B23648D4
:104EC000A0F81510B0F81700A0F5806001B23248C4
:104ED000A0F81710B0F81900A0F5806001B22E48B4
:104EE000A0F819102FE02C48093031680160716872
:104EF00041600938B0F8090040F30E00410026482F
:104F0000A0F81D10B0F80B0040F30E00410022483D
:104F1000A0F81F10B0F80D1001E01DE012E0A0F89D
:104F20002110807AC1091C4880F82310007BC10938
:104F3000194880F82410B0F80F0081B21648A0F884
:104F4000251000E000BF00BF07E01348273031689C
:104F500001607168416000E000BF00BF00BFE1E692
:104F6000940800202C10002044BD00205410002084
:104F7000F4BD00209508002064BF0020CCC00020B4
:104F80009608002034C2002064C2002094C2002091
:104F9000A0C20020900800206008002070B50446E0
:104FA0000D46208800B220816878297840EA0120E7
:104FB0002080E878A97840EA012000B26080687912
:104FC000297940EA012000B2A080A879A07102F0FE
:104FD0007BF9E06070BD70B50446204600F0F6F93C
:104FE000054605B970BD62892178284600F0EEF8C3
:104FF00000BFF7E770B504460D46287800F00F00B3
:105000002060287800116060A878697840EA012063
:10501000A060E8780001297940EA2110E060687911
:10502000297901F00F0140EA012020611021F2EE00
:10503000090ABAEE090AA06814F012FE84ED070A04
:105040000C21F3EE0E0ABBEE0E0AE06814F008FE27
:1050500084ED080A0C21F2EE040ABAEE040A206973
:1050600014F0FEFD84ED090AA87900EE100AB8EEEE
:10507000400A84ED0C0AE87900EE100AB8EE400A06
:1050800084ED0D0A02F020F9A06370BD70B52DED1E
:10509000028B0446B0EE408AF0EE608A204600F0B3
:1050A00095F9054615B9BDEC028B70BDD4ED100A1B
:1050B000B0EE600A21789FED062AF0EE681AB0EE95
:1050C000481ADFED030A284608F0D8FA00BFEAE7DD
:1050D0000000000070B50446204600F077F9054650
:1050E00005B970BD94ED0E0AB0EE402A2178DFEDCF
:1050F000061A9FED051ADFED040A9FED030A284604
:1051000008F0BCFA00BFECE70000000070B52DED20
:10511000028B0446B0EE408A204600F057F905465F
:1051200015B9BDEC028B70BD94ED0F0AF0EE400A8C
:1051300021789FED062AF0EE481A9FED041A9FEDA4
:10514000030A284608F09AFA00BFEAE700000000C8
:1051500070B50446204600F039F9054605B970BD22
:1051600021789FED072ADFED061A9FED051ADFED86
:10517000040A9FED030A284608F080FA00BFEEE714
:105180000000000070B50446204600F01FF90546F7
:1051900005B970BD6289217828460BF025FC00BF57
:1051A000F7E710B5012001F06DFF10BD10B5082024
:1051B00001F068FF10BD10B5102001F063FF10BDB5
:1051C00010B5202001F05EFF10BD000070B5044650
:1051D0000E4615460B48046070190A494860FF20C6
:1051E0000877FF21074841778177C17780F8201041
:1051F00080F8211080F82210FC2180F82310FCF7A1
:10520000D7FF70BDC00800207047000010B51848D7
:105210008078A0B90220FEF7F5FB164880ED080A59
:105220000120FEF7EFFB134880ED070A002011492B
:1052300081F8240000210F4880F8251010BD0C488B
:10524000D0F803000B4908620948D0F80F00C86184
:1052500007488078022801D1012000E0002005499C
:1052600081F824000121034880F8251000BFE5E7FC
:1052700045AB002064AB002070B504460D46291DE7
:105280002046FEF739FF2078034901EB0016B0787D
:1052900081092C20015570BDA4BE002070B50446C4
:1052A0000D46B5F9020000EE100AB8EEC00ADFEDB7
:1052B0001C0A20EE200A84ED050A2888400000EE32
:1052C000100AB8EEC00ADFED170A20EE200A9FEDA3
:1052D000161AC0EE010A9FED130A30EEC00A84EDE3
:1052E000070AA87900EE100AB8EE400A84ED080A11
:1052F000B5F9040000EE100AB8EEC00A84ED090A00
:105300002988618501F0E0FF0646E868301A0A281E
:1053100002D90120207301E00020207370BD00003D
:105320005077D63DDB0F49400000004602460C296D
:105330000BDA012A03D1064800EB01107047022A5C
:1053400003D1044800EB0110F8E701481030F5E7FD
:1053500044BD0020F4BD002070B504460D4695ED17
:10536000070A84ED070A95ED080A84ED050A95ED14
:10537000090A84ED060A95ED0C0A84ED080A2979DC
:105380002C20015501F0A0FF0646A86B301A0A2810
:1053900002D90120207301E00020207370BD0000BD
:1053A00001460548808A01228A40104008B1012048
:1053B00070470020FCE70000C0B000209FED010A0C
:1053C0007047000000000000002070470146487848
:1053D000042807D04878052804D04878072801D049
:1053E000002070478878012801D10448F9E78878BF
:1053F000022801D10248F4E70020F2E72C10002037
:1054000054100020024901EB800191ED000A704721
:1054100010AD0020024901EB800191ED000A7047B8
:10542000F8AC0020024901EB800191ED000A7047C1
:1054300004AD0020F0EE400A20EE002AB0EE421A41
:1054400020EE002A22EE002AF0EE421A9FED802A7A
:1054500021EE822ADFED7F2A02EEC12ADFED7E2ACD
:1054600002EEE02ADFED7D2A32EE222A80ED002ACC
:105470009FED7B2A21EE822ADFED7A2A02EEC12AF5
:10548000DFED792A02EEA02ADFED782A32EE222A19
:1054900080ED012A9FED762A21EE822ADFED752A22
:1054A00002EE812ADFED742A02EEE02ADFED732A94
:1054B00032EE222A80ED022A9FED712A21EE822A05
:1054C000DFED702A02EE812ADFED6F2A02EEE02A7C
:1054D000DFED6E2A32EE222A80ED032A9FED6C2A40
:1054E00021EE822ADFED6B2A02EEC12ADFED6A2A65
:1054F00002EEA02ADFED692A32EE222A80ED042A8C
:105500009FED672A21EE822ADFED662A02EEC12A8C
:10551000DFED652A02EEA02ADFED642A32EE222AB0
:1055200080ED052A9FED622A21EE822ADFED612AB5
:1055300002EEC12ADFED602A02EEA02ADFED5F2A2B
:1055400032EE622A80ED062A9FED5D2A21EE822A44
:10555000DFED5C2A02EE812ADFED5B2A02EEA02A53
:10556000DFED5A2A32EE622A80ED072A9FED582A93
:1055700021EE822ADFED572A02EEC12ADFED562AFC
:1055800002EEA02ADFED552A32EE222A80ED082A0B
:105590009FED532A21EE822ADFED522A02EEC12A24
:1055A000DFED512A02EEA02ADFED502A32EE222A48
:1055B00080ED092A9FED4E2A21EE822ADFED4D2A49
:1055C00002EEC12ADFED4C2A02EEA02ADFED4B2AC3
:1055D00032EE622A80ED0A2A9FED492A21EE822AC4
:1055E000DFED482A02EE812ADFED472A02EEA02AEB
:1055F000DFED462A32EE622A80ED0B2A39B39FEDA9
:10560000442A80ED002A9FED422A80ED012A9FED79
:10561000402A80ED022A9FED3E2A80ED032A9FED6D
:105620003C2A80ED042A9FED3A2A80ED052A9FED61
:10563000382A80ED082A9FED362A80ED092A9FED51
:10564000342A80ED0A2A9FED322A80ED0B2A70471A
:105650004162C34244BAB8424D8433429FCDAA3E10
:1056600058A886412720D941FD87743E5F294B3BCE
:10567000477259BF45475A40A7E8824062A1063F9A
:10568000D3DE20C03C4E254197FF4D41772DC93FC9
:10569000C8984D41A54E75416C096940C4B1904010
:1056A000C6DC7D409BE6B340D8F010400B469D3FE2
:1056B0006ABCDE40306CC8421F65E942DA1B1C3F01
:1056C000A8C6B5C1EC2F614109F9314176711B3E85
:1056D0008885E64088850941A9A40240CD3B224047
:1056E000BE41A041712CC841E63FCC402041F94069
:1056F0007C619840F7F598416C78B74108AC3C4024
:105700007E8C95C01904EE3F0E4F5F408FC2853FDF
:105710000000000030B52DED108B8DB0B0EE408A4A
:10572000F0EE608A044618EE900A17F07BF9CDE996
:1057300008019DED080B10F0CBFAB0EE40FAF0EE48
:1057400060FA9FEDE40B53EC102B51EC1F0B16F09D
:105750006BFB41EC1C0B15F003FE09EE100A18EE72
:10576000100A17F05FF941EC1F0BB0EE4F0AF0EE94
:105770006F0A10F0ADFA8DED080B9FEDD60B53ECD0
:10578000102B9DED080B51EC100B16F04DFB41EC6E
:105790001C0B15F0E5FD09EE900A18EE900A17F0C3
:1057A00041F9CDE906019DED060B10F079F98DED7B
:1057B000080B9FEDC80B53EC102B9DED080B51EC23
:1057C000100B16F031FB41EC1C0B9FEDC40B53EC9E
:1057D000102B15F027FF41EC1F0B15F0C1FD0BEE50
:1057E000900A18EE100A17F01DF9CDE908019DED99
:1057F000080B10F055F9B0EE40CAF0EE60CA9FED0C
:10580000B50B53EC102B51EC1C0B16F00DFB41ECBF
:105810001F0B15F0A5FD0DEE100A3BEECD0A20EE94
:10582000000A79EE690A39EE691A00EE810A10EE73
:10583000101A084617F0F6F841EC1F0BB0EE4F0AAD
:10584000F0EE6F0A10F070FBB0EE40CAF0EE60CAE6
:1058500051EC1C0B15F084FD0DEE900A3BEECD0AC9
:10586000DFEDA00A20EE200AB0EE40EA39EE690A28
:10587000DFED9C0A20EE200AB0EE40AA9FED9A0AC6
:105880000DEEAD0ADFED980A30EE600AF0EE40AAA8
:105890003EEE2A0A10EE101A084617F0C3F82EEE54
:1058A0000E0A0AEE0A0A0AEEEA0ACDE9040110EE2F
:1058B000101A084617F0B6F841EC1C0BB0EE4C0A73
:1058C000F0EE6C0A10F030FBB0EE40FAF0EE60FA49
:1058D0001AEE100A17F0A6F853EC1F2BCDE90001C1
:1058E0009DED000B51EC100B15F09CFECDE9020173
:1058F0009DED041B9DED020B0FF0CAFD8DED060B17
:105900009FED7A0B53EC102B9DED060B51EC100B19
:1059100016F08AFACDE908019DED080B51EC100B49
:1059200015F01EFD0546284617F07CF841EC1C0BCF
:10593000B0EE4C0AF0EE6C0A10F0B2F88DED040BEC
:105940009FED6C0B53EC102B9DED040B51EC100BE9
:1059500016F06AFACDE9080118EE100A17F062F89D
:1059600041EC1C0BB0EE4C0AF0EE6C0A10F098F80B
:105970008DED040B9FED570B53EC102B9DED040B9D
:1059800051EC100B16F050FACDE906019DED080B15
:1059900053EC102B9DED060B51EC100B15F042FE55
:1059A00041EC1F0B15F0DCFC0EEE900A284617F0B8
:1059B00039F841EC1F0BB0EE4F0AF0EE6F0A10F011
:1059C00087F9B0EE40CAF0EE60CA9FED4A0B53EC87
:1059D000102B51EC1C0B16F027FACDE9060118EE3E
:1059E000100A17F01FF841EC1F0BB0EE4F0AF0EE53
:1059F0006F0A10F06DF9B0EE40CAF0EE60CA9FED8C
:105A0000350B53EC102B51EC1C0B16F00DFACDE9B5
:105A100004019DED060B53EC102B9DED040B51EC96
:105A2000100B15F0FFFDCDE908019DED080B51ECC1
:105A3000100B15F095FC0BEE100A9FED300A3EEEB0
:105A4000C00A20EE000A0BEE0B0A10EE101A0846F0
:105A500016F0E8FF41EC1F0BB0EE4F0AF0EE6F0AB4
:105A600010F062FAB0EE40CAF0EE60CA51EC1C0BC6
:105A700015F076FC0B909FED210A3EEEC00A10EE69
:105A8000101A084616F0CEFFCDE908011BEE100AE9
:105A900016F0C8FF41EC1C0B9DED081BB0EE4C0A44
:105AA000F0EE6C0A0FF0F4FCB0EE40FAF0EE60FAA3
:105AB00051EC1F0B15F054FC0A909DED0B0A84ED80
:105AC000000A9DED0A0A84ED010A0DB0BDEC108BB1
:105AD00030BD0000000000C01E85CB3F000000006C
