:020000040800F2
:10000000C010002079020008B7500008CD4A00084F
:10001000B550000871040008AB570008000000004C
:10002000000000000000000000000000EB5100088C
:10003000CD09000800000000E9510008ED5100085A
:10004000930200089302000893020008930200083C
:10005000930200089302000893020008930200082C
:10006000930200089302000893020008930200081C
:10007000930200089302000893020008930200080C
:10008000930200089302000881030008930200080D
:1000900093020008930200089302000893020008EC
:1000A000695200089D5200089152000885520008CC
:1000B00093020008930200089302000893020008CC
:1000C00093020008930200089302000893020008BC
:1000D00093020008930200089302000893020008AC
:1000E000930200089302000893020008930200089C
:1000F000930200089302000893020008930200088C
:10010000930200089302000893020008930200087B
:100110009302000893020008A95200089302000805
:10012000930200089302000893020008930200085B
:10013000930200089302000893020008930200084B
:10014000930200089302000893020008930200083B
:10015000930200084144000893020008930200083B
:10016000930200089302000893020008930200081B
:10017000930200089302000893020008930200080B
:1001800093020008930200089302000893020008FB
:100190009302000800000000D5090008E1090008EA
:1001A00093020008930200089302000893020008DB
:1001B00093020008930200089302000893020008CB
:1001C00093020008930200089302000893020008BB
:1001D000930200089302000800F002F800F03CF8D7
:1001E0000AA090E8000C82448344AAF10107DA4592
:1001F00001D100F031F8AFF2090EBAE80F0013F0A8
:10020000010F18BFFB1A43F00103184718560000EE
:1002100038560000103A24BF78C878C1FAD852077F
:1002200024BF30C830C144BF04680C607047000070
:100230000023002400250026103A28BF78C1FBD8EF
:10024000520728BF30C148BF0B6070471FB505F08B
:10025000D4FA1FBD10B510BD00F05CF81146FFF7D1
:10026000F5FF05F0B3FA00F07AF803B4FFF7F2FFF8
:1002700003BC00F07DF800000948804709480047AA
:10028000FEE7FEE7FEE7FEE7FEE7FEE7FEE7FEE746
:10029000FEE7FEE704480549054A064B70470000A3
:1002A00059520008D9010008C0040020C0100020E5
:1002B000C0080020C00800204FF0000200B513461F
:1002C00094469646203922BFA0E80C50A0E80C5076
:1002D000B1F12001BFF4F7AF090728BFA0E80C5027
:1002E00048BF0CC05DF804EB890028BF40F8042B20
:1002F00008BF704748BF20F8022B11F0804F18BF8D
:1003000000F8012B704770477047704700487047EE
:100310005C0400207546FFF7F9FFAE46050069460C
:10032000534620F00700854618B020B5FFF7B2FF0E
:10033000BDE820404FF000064FF000074FF00008E6
:100340004FF0000B21F00701AC46ACE8C009ACE867
:10035000C009ACE8C009ACE8C0098D46704710B5CB
:100360000446AFF300802046BDE81040FFF77DBF94
:1003700001491820ABBEFEE72600020070470000CE
:10038000014801F0FFB800004C01002070B50446A0
:1003900000688168C1F3400504F0A7FB48B345BB82
:1003A0002068816801F00D01012914D18168124A89
:1003B0001140891C816021680320086002F09CF8CC
:1003C000054612E002F098F8401B02280DD920687B
:1003D0008068C00709D0E06D40F01000E065206E35
:1003E00040F001002066012070BD20688068C007D1
:1003F000E8D1002070BD0000C0FFFF7F70B504464B
:10040000006804F072FB70BB20688168174A1142D3
:100410001AD18168D6433140491C816002F06CF8E2
:1004200005461BE004F061FB20B92068816831407B
:10043000491C816002F060F8401B02280ED9206838
:100440000068C043C00709D0E06D40F01000E065CF
:10045000206E40F001002066012070BD2068016818
:10046000C943C907DED1002070BD00003F000080F5
:10047000FEE7000000B5164887B04FF440710160F8
:1004800000214FF400224160C0E902121203C0E9CA
:100490000421920AC0E90621016202200091CDE9FF
:1004A0000110012003904FF4D570049040F2FF70CA
:1004B00005906946074801F044FC002201210548E7
:1004C00001F0AAFB034801F01CFF07B000BD0000CB
:1004D00000010020180200201A4830B4D0ED020AB2
:1004E0009FED190AA0F1240100F1140460EE800AC6
:1004F0002578FDEEE00A10EE903AD1ED010A60EEAB
:10050000800AFDEEE00A10EE902AD0ED000A0F48B6
:1005100020EE800A05702479447083701B0ABDEEBA
:10052000C00AC3700271120A10EE101A4271817172
:10053000090AC1710349024630BCA831044801F0E0
:10054000DBBB0000580000200000C8420C00002067
:100550001802002070B564202DED028B01F04AFBDB
:100560009FED3D2A9FED3E8A3F48F0EE422ADFEDA7
:100570003B1AB0EE481ADFED3B0AB2EE0E0A044613
:1005800004F0A8FDDFED398A3748DFED391A2C3049
:10059000F0EE682AB0EE682AB0EE481ADFED350AB0
:1005A000B7EE080A054604F095FD2F48F0EE682ADC
:1005B000B0EE682AF0EE001AB0EE481AF0EE480AE3
:1005C000B1EE000A583004F085FDB0EE480A20462E
:1005D00004F090FDB0EE480A284604F08BFD224856
:1005E000B3EE0E0A103880ED020A234803F0AAFB8E
:1005F0000C21224802F079FB4FF480211F4802F0C1
:1006000043FB1E480068D0F80C1141F04001C0F8CF
:100610000C117F211A4800F021FA1948006841683E
:1006200041F020014160164800F070FE002115489D
:1006300003F060FE0021134803F0A0FA11493220B4
:1006400009684863104803F07DFBBDEC028BBDE8F0
:100650007040FFF70FBF00000000F0420000C842EA
:1006600000000000A69BC43A7C000020000020424D
:1006700000000C42EC51383EC40300207C020020F4
:100680004C01002010040020780300202DE9F047E1
:100690009F494888A0F2FA7000EE100AB8EEC00A2E
:1006A000DFED9C0A9C4860EE201AC0ED001A8A8893
:1006B00000EE102AB8EE400ADFED980A20EE200A7C
:1006C00080ED020AC98801EE101AB8EE411A21EE37
:1006D000201AF3EE000A60EE200A80ED011A9FED69
:1006E000902A60EE820AC0ED040ADFED8E0A00F166
:1006F000140541EE810AC0ED030AD5ED021A71EE30
:10070000E01AD5ED030A9FED882A41EE820AC5ED75
:10071000030AF5EEC00AF1EE10FA02D8DFED830A03
:1007200006E010EE901A824A914201DBDFED810A69
:1007300011EE101ADFF800920024C5ED030A4945B6
:1007400001DD2C702C7110EE102A4FF081418A428D
:1007500007DA2A78022A04D02A79012A01D02C70DB
:100760002C7111EE102A754B694E1A441C3EB2F5DD
:10077000900F02D92C702C7101E032782A7110EEA2
:10078000102A6F4B01279A4200DD777010EE102A75
:100790006C4B9A4200DA747010EE102A8A4200DA2A
:1007A000B770804610EE100A6749884200DDB470C9
:1007B0009FED660A58482430824604F09FFC95ED70
:1007C000020AD5ED0B0A98ED011A614A70EE600A33
:1007D00080EE810A10EE101A86ED020A914203DAC9
:1007E0009FED5C0A86ED020A4B48D8ED000A5030B6
:1007F00004F084FCD8ED020A9FED570A46487C308D
:1008000004F07CFC287901285DD1D8F80410494512
:1008100059DC6879012802D0504604F04DFC3E486E
:10082000727802212438012A18D0B278012A2BD0FC
:1008300095ED160AB5EEC00AF1EE10FA37DD474B1A
:10084000D8F808209A422FDBD5ED210AF4EEC00A31
:10085000F1EE10FA28D8C0ED000A27E095ED160A4F
:10086000B5EEC00AF1EE10FA01DB2C7009E0B5EE2E
:10087000C00AF1EE10FA04D2B1EE400A80ED000A8F
:100880002F70B278012A22D195ED160AB5EEC00A72
:10089000F1EE10FA1AD9B5EEC00AF1EE10FA16DD33
:1008A00080ED000A297012E080ED000A2970B5EE93
:1008B000C00AF1EE10FA04D2B1EE400A80ED000A4F
:1008C0002F706F7103E07078012800D12C702879A7
:1008D00020B96879012800D12C706C712878002823
:1008E00013D100224FF400414FF0904001F0FEFD83
:1008F000012220211A4801F0F9FD1A480068C0F8C9
:100900001C416021C0F824116C70BDE8F087000024
:100910001C0000202AFEEF3B58000020E509043CA3
:100920006666663FCDCC3C4017B7513900000000E9
:1009300000007042000070420000E041000068BE0C
:10094000000094419A9991410000904000000042BB
:10095000CDCCCC3DCDCCCC3D0000944100008C41B1
:10096000000800487C0200200D4902688A4201D23A
:100970000C4901E00B492031D2B21423083AB2FBF2
:10098000F3F2436C02F01F0223F003031944816465
:1009900004498031C1640121914001657047000024
:1009A00008040240000802400179074A02EB810274
:1009B0004265054A4432491E826501F01F02012149
:1009C0009140C16570470000FC080240704772B654
:1009D000FEE70000014801F05CBA000018020020A8
:1009E000014801F056BA000018020020F0B5D1E924
:1009F00001650C692C430D68BEB145F080452C4360
:100A0000D1E90665354391F820704E69406D46EA9C
:100A100007663543CE6803EBC303354300EBC303DE
:100A20000020E3E802450C4D0FE044EA8544E7E787
:100A30001418165CE77846EA0766A77864783F04DE
:100A400047EA0424264340C3001DCC6805EB144448
:100A500024788442ECD8F0BD04580008F8B500258D
:100A60000446009590F858000E4601280BD001204E
:100A700084F858002046FFF789FC0200E06D04D09E
:100A800040F010002AE00220F8BD20F4885040F029
:100A90000200E06520688168134B194006F080432E
:100AA000194341F000418160104B20680EE000992D
:100AB000491C0091994209D3E06D20F0020040F0FA
:100AC0001000E06584F858500120F8BD8168C90F16
:100AD000EDD1E06D20F0020040F00100E06584F807
:100AE00058501046F8BD0000C0FFFF3F02DE040072
:100AF000704700002DE9F84F4FF000090446CDF88B
:100B000000900D4694F85820DFF8F88361694F464D
:100B10004846012A0AD00126FB4A84F8586041B1B0
:100B2000296A012905D0A36EEBB129E00220BDE8B6
:100B3000F88F6868092838D1A96A4FF4785041B114
:100B40002B6801F07C0100EA53400843E96A08433E
:100B500002E0296800EA51402168CB6C134003434E
:100B6000CB64606621E0C4E91971A96A286A31B1D1
:100B700001F07C01401E0843E96A084300E0401E82
:100B80002968C1F38463297901F01F018B40A16EAC
:100B90000343491EA166606E40EA0300606604D10B
:100BA0002168CB6C13400343CB64206803F099FFAA
:100BB00058B995F8250098B12068C16895F82620A5
:100BC00021F4401141EA4251C160206803F099FFCD
:100BD0008246206803F085FF5AEA00010DD0FAE052
:100BE00095F8260095F82410400540EA0151206848
:100BF000C26822F440121143E6E7A86A30B1E86AFD
:100C000020B195F8250001285DD003E095F8250076
:100C1000012804D02068C16821F0007103E0206839
:100C2000C16841F00071C16095F83000012851D0D1
:100C30002068016921F002010161AA682968206821
:100C4000B2F1004F37D003F068FF2068416921F00E
:100C50000041416120686969C268C2F3C102520063
:100C600091402A69042A43D000EB82002B68026E6F
:100C7000DFF898C203F0F84302EA0C020B431A4370
:100C800042F00041016622682869A96902EB8000F0
:100C9000026E22F080720A430266297F2268286968
:100CA000012922D0002102EB8000026E22F00072A6
:100CB0000A4302668FE0002203F02FFF206841699B
:100CC00041F00041C5E7E06D40F02000E0654FF0E5
:100CD0000109A9E7D5E90D1001432068026922F452
:100CE000FF7242F002021143A6E74FF00071DAE70B
:100CF000002103F0ECFE400320684FF0000171D0AA
:100D000003F0E5FE90FAA0F0B0FA80F12868420303
:100D10006DD090FAA0F0B0FA80F0814204D10022A8
:100D20001146206803F008FF0121206803F0CFFE80
:100D3000400320684FF001015CD003F0C8FE90FA38
:100D4000A0F0B0FA80F12868420358D090FAA0F0E1
:100D5000B0FA80F0814204D100220121206803F022
:100D6000EBFE0221206803F0B2FE400320684FF042
:100D7000020147D003F0ABFE90FAA0F0B0FA80F188
:100D80002868420343D090FAA0F0B0FA80F0814284
:100D900004D100220221206803F0CEFE0321206846
:100DA00003F095FE400320684FF0030132D003F0BA
:100DB0008EFE90FAA0F0B0FA80F1286842032ED09F
:100DC00090FAA0F0B0FA80F0814204D10022032111
:100DD000206803F0B1FE206803F08BFE10B3ACE096
:100DE00000E004E003F073FEC0F384618EE7C0F31B
:100DF000846092E703F06BFEC0F38461A3E7C0F365
:100E00008460A7E703F063FEC0F38461B8E7C0F332
:100E10008460BCE703F05BFEC0F38461CDE7C0F300
:100E20008460D1E72068EA682968424550F8B02F0D
:100E3000C1F3120101D10A4300E08A430260E8686D
:100E400040457AD1286841031AD090FAA0F1B1FA4E
:100E500081F1491C01F01F0109294FEA403130D8C6
:100E6000002910D090FAA0F1B1FA81F101F101014D
:100E700001F01F0106FA01F608D1C0F3846109E010
:100E8000C0F38461E5E7C0F38461EFE790FAA0F175
:100E9000B1FA81F101F1010101F01F0146EA81611E
:100EA00002D1C0F3846003E090FAA0F0B0FA80F0C1
:100EB00000F1010000F01F0000EB400041EA00518A
:100EC00037E000290DD090FAA0F1B1FA81F101F1DB
:100ED000010101F01F0106FA01F605D1C0F384619A
:100EE00006E0C0F38461F2E790FAA0F1B1FA81F173
:100EF00001F1010101F01F0146EA816108D1C0F34F
:100F0000846009E000007F400040100400F0FF030F
:100F100090FAA0F0B0FA80F000F1010000F01F009C
:100F2000394A00EB400002EB005041EA000141F079
:100F30000071AA68206803F0F0FD34482A68024274
:100F40005ED020684FF0A04C314B324E324D6045A0
:100F500001D0A84201D1194600E031468968DFF886
:100F6000BC8001F0E071424503D0DFF8B480424517
:100F700020D15FEA01281DD4604505D0294A90425E
:100F80003ED1A84200D0334641F40000996821F0D8
:100F9000E07101439960244824490068B0FBF1F0F6
:100FA000801C00EB4000800000E0401E0090002804
:100FB000FBD125E0DFF8788042450FD15FEAC11808
:100FC0000CD4A84202D11B4A904219D0604502D0ED
:100FD000A84200D0334641F080700CE0DFF8588022
:100FE00042450DD14A020BD4A84209D0604500D039
:100FF000334641F48000996821F0E0710143996023
:1010000084F85870484692E5000020FE00000880F1
:10101000000300500007005000010050000021C3F1
:101020001000C0900006005030000020400D03006A
:10103000000052C700050050000084CB2DE9F047A6
:10104000DFF878A204462DED048B012220215046C2
:1010500001F04CFA2068D0F88000994980B20880ED
:101060002268D2F884204A802268D2F888208A80B8
:101070002268D2F88C20A0F2F37000EE100ACA8029
:10108000B8EEC00ADFED8F0A8F4C4FF4004820EE17
:10109000200A04F138054FF0904984ED010A2878C0
:1010A00069784FF07E57DFED898A894E9FED898AF6
:1010B000DFED899AB7EE009A884239D021B1012933
:1010C00023D0022932D033E0D4ED000A7E4930EE3D
:1010D000C00A243184ED050A84ED040A91ED020A68
:1010E000D1ED010AC0EE201A9FED7C1ADFED7C0ADB
:1010F00040EE410A21EEA00A84ED070A84ED060ABB
:1011000084ED030A84ED080A12E0022870D1D4EDC0
:10111000000A30EEC00A84ED050A84ED040A94ED5D
:10112000030A84ED070A84ED060A0BE0012802D0C9
:10113000022807D05CE094ED030A39EE400A84ED02
:10114000080A58E001224146484601F0CFF9002242
:101150002021504601F0CAF9D4ED050AC4ED040A75
:1011600094ED000A94ED011A30EE410A84ED050A6F
:1011700094ED071A84ED061AD4ED031AC4ED071A8C
:101180009FED582A20EE020A9FED572A00EEC20A70
:10119000DFED560A01EEA00ADFED550A01EE600A06
:1011A00010EE100A84ED030AB84201DD84ED039AC3
:1011B00094ED030AB5EEC00AF1EE10FA01D2C4EDC7
:1011C000039A94ED030A306860EE280AFCEEE00A08
:1011D00010EE901AC0F81C11F0EE480A40EE080A12
:1011E000BCEEE00A10EE101AC0F82411022068705C
:1011F000287801285DD101224146484601F076F960
:1012000000222021504601F071F994EC020A9FED72
:10121000391ADFED391A394930EE200A84ED020A15
:1012200020EE011AD4ED080A41EE210A10EE900AD0
:10123000C4ED080A884203DDDFED310AC4ED080A77
:10124000F5EEC00AF1EE10FA01D2C4ED089AD4ED21
:10125000080A9FED2C1A40EE010A10EE900AC4ED28
:10126000030AB84201DD84ED039A94ED030AB5EE5A
:10127000C00AF1EE10FA01D2C4ED039A94ED030A0C
:1012800039EE400A84ED030A60EE280A3068FCEE6D
:10129000E00A10EE901AC0F81C11F0EE480A40EE79
:1012A000080ABCEEE00A10EE101AC0F82411012062
:1012B0006870BDEC048BBDE8F087000000080048B2
:1012C0001C000020DAFE953C3400002000409C46C3
:1012D0007C02002000002A4600000000CDCCCC3C5F
:1012E00079E9863F1023843C2CF1803C986EB23F14
:1012F0000C93C93EEBFBC743BD3786366666663F37
:101300006666663FBEA3C63C704700002DE9F0410B
:10131000044600684FF0A0463E4FB04201D0B842AC
:1013200001D13D4900E03D49896801F01F0503F006
:10133000D8FB08BB2068C168C06C01F0004110F404
:10134000C07F00D191B194F85800012814D0012039
:1013500084F858002046FFF751F801004FF00002D2
:101360000CD084F858200846BDE8F081E06D40F0CC
:101370002000E0650120F7E70220F5E7E06DC005F9
:1013800004D5206E20F00800206600E02266E06DA3
:1013900042F20103984340F48050E0652068204BFE
:1013A000DFF880C0B84201D1B64604E0984201D1CE
:1013B000E64600E08646864500D02DB9D4F85CE0CC
:1013C0002EF4801EC4F85CE04FF0600EC0F800E020
:1013D00084F858202068B84204D0984201D166466B
:1013E00000E00646864209D045B1062D06D0072DFD
:1013F00004D0E06D40F48010E065B4E7C26812F0FC
:10140000007FB0D18268084B1A4042F00802826027
:10141000A9E7000000010050000300500007005041
:101420000005005000040050C0FFFF7F7047704768
:101430002DE9F04F044690F858009BB00D464FF050
:10144000000B012812D0012084F8580000271797BC
:10145000189720684FF0A048DFF80C91DFF80CA136
:10146000434E404506D13046009608E002201BB0AE
:10147000BDE8F08F48450AD15046CDF800A003F0F2
:1014800040FB0090206803F03CFB40B109E0E06DB8
:1014900040F02000E06584F858700120E7E70098EC
:1014A00048B1E06D40F02000E0654FF0010B84F89A
:1014B00058705846DBE72068C446604501D0B0420A
:1014C00001D12C4800E02C4829682C4B0029816868
:1014D00040F61F7221F4604128D094F8388041EA28
:1014E0004831D5F8048041EA0801816021686145EE
:1014F00001D0B14205D1DCF80810B368C1F3000196
:1015000009E0D9F80810DAF80860C1F30001C6F361
:1015100000069B683143C3F300031943C7D1AB688E
:10152000296819438368934319431BE0816021684C
:10153000614501D0B14205D1DCF80810B368C1F3B0
:10154000000109E0D9F80810DAF80850C1F30001E9
:10155000C5F300059B682943C3F300031943A6D1D3
:10156000816891438160A2E70004005000050050AB
:10157000000100500003005000070050000600501A
:10158000704770472DE9F84F0446006806684568C3
:101590004FF0A048DFF89092404501D0484501D176
:1015A000A24800E0A248806800F01F07B0070ED5EF
:1015B000A8070CD5E06DC00603D4E06D40F40060D0
:1015C000E0652046FFF794FA216802200860DFF802
:1015D00064B2DFF864A2700701D5680703D430074E
:1015E0003FD528073DD5E06DC00603D4E06D40F43B
:1015F0000070E065206803F088FA60B32068484511
:1016000001D1414604E0584501D1514600E0014670
:10161000814208D03FB1052F05D0092F03D048459E
:1016200003D1414606E0C16805E0584501D1514665
:1016300000E00146C96889040DD4016809070AD58C
:1016400003F05BFA58B3E06D40F01000E065206EE7
:1016500040F0010020662046FFF792FF21680C2031
:101660000860B00601D5A80603D470065FD56806E9
:101670005DD5E06DC00603D4E06D40F40050E06538
:101680002068C16C11F4C07F1AD00021009103F0D2
:101690003CFA02462068484514D1414617E02068CC
:1016A000416821F00C014160E06D20F48070E0653C
:1016B000E06DC004CFD4E06D40F00100E065CAE702
:1016C0000121E3E7584501D1514600E0014681423E
:1016D00008D03FB1062F05D0072F03D0484503D1CE
:1016E000414606E0C16805E0584501D1514600E099
:1016F0000146C968009BA3B18B0102D58AB18A0457
:101700000FD4026852060CD589020AD403F0E5F919
:10171000F0B3E06D40F01000E065206E40F0010095
:1017200020662046FFF78AFC2168602008603006AA
:101730000BD5280609D5E06D40F48030E0652046E1
:1017400000F098F9216880200860F0050CD5E805C4
:101750000AD5E06D40F40030E0652046FFF766FEF4
:1017600021684FF480700860B0050CD5A8050AD533
:10177000E06D40F48020E0652046FFF758FE2168C8
:101780004FF400700860F00631D5E8062FD500E070
:1017900009E0E06BE8B12068EFB3404501D048456F
:1017A00012D1224811E02068416821F060014160B7
:1017B000E06D20F48050E065E06DC005B1D4E06DCF
:1017C00040F00100E065ACE71948806800F4604033
:1017D00050B1E06D40F48060E065206E40F00200A2
:1017E00020662046FFF7CDFE2168102008607005B6
:1017F00017D5680515D5E06D40F48040E065206E92
:1018000040F00800206621684FF4806008602046A0
:10181000BDE8F84F00E001E0FFF776BDC068C00703
:10182000D6E7BDE8F88F000000010050000300502B
:10183000000700500005005000040050F8B54FF0BC
:10184000000504002E46009502D0E06D10B107E0BF
:101850000120F8BD204600F00FF9266684F8586094
:1018600020688168C1F3407119B18168754A1140DF
:10187000816020688168C1F3007189B98168724A0A
:10188000114041F080518160704871490068B0FB9F
:10189000F1F04000801C00E0401E00900028FBD1C9
:1018A00020688168C1F3007141B9E16D41F0100118
:1018B000E165216E41F001012166012503F01DF96A
:1018C000E16DC90600D430B1E06D40F01000E06574
:1018D00001252846F8BDE06D20F4807040F002003C
:1018E000E065206803F001F940BB20684FF0A04399
:1018F000584A984201D0904204D199689668C1F341
:1019000000010AE054498968544EC1F30001B668E9
:10191000C6F300063143524EB668C6F300063143A3
:101920000CD1984201D0904201D14E4800E04E487F
:101930006168826822F47C120A438260E168E06B8D
:10194000627F0843A16841EA4231084394F82410B9
:1019500040EA0140012904D1218D444A02EB414172
:101960000843E16A29B101F47871226B014342EA2C
:1019700001002168CA683E4B1A400243CA602068D1
:101980000169626B21F0406111430161206803F03D
:10199000B4F80646206803F0A0F806432ED1207F55
:1019A00094F83810800340EA41012068C26844F28C
:1019B00002039A430A43C260206900282068016933
:1019C0000AD041F480310161206850F8C01F2269BB
:1019D0006FF30D01114307E021F4803101612068AC
:1019E00050F8C01F6FF30D01016094F8400001280A
:1019F0000CD02068016921F00101016160690128B2
:101A00002068016B21F00F0110D012E0D4E9111011
:101A10000143D4E91302104301432068026940F2F4
:101A2000FC739A43114341F00101E6E7226A521E1A
:101A300011430163E06D20F0020040F00100E06519
:101A400047E70000C0FFFF5FC0FFFF7F30000020BE
:101A5000400D03000001005000040050000500503C
:101A60000006005000030050000700500000FEFF79
:101A70000740F0FF7047000070B59CB00546142188
:101A800015A8FEF719FC54216846FEF715FC2868D6
:101A9000B0F1A04F46D14FF4004000908003119068
:101AA000684601F0C3FA08B1FEF791FF1E49C86C01
:101AB00040F40050C864C86C00F400501A90C86C20
:101AC00040F00100C864C86C002600F001001A90C4
:101AD0000F2015900320CDE9160615A94FF0904070
:101AE00000F02CFC124C114820600520C4E90106CE
:101AF0008020C4E90360400060618000A061202074
:101B0000C4E90706204600F015F808B1FEF75FFFAC
:101B10006C65002211461220A56201F0EFF9122037
:101B200001F0DEF91CB070BD001002400800024058
:101B3000B801002070B504000CD02B4A2068142195
:101B4000904209D2294A0244B2FBF1F18900616452
:101B500027490AE0012070BD234A52420244B2FBE9
:101B6000F1F189006164204908392164022184F877
:101B70002510016847F6F0729143D4E902231A4315
:101B8000D4E904352B431A43A3691A43E3691A4382
:101B9000236A1A430A4302602046FEF7E5FEA06866
:101BA0000025B0F5804F00D16560A16C20790860F8
:101BB000D4E9130141606068401E032808D820461C
:101BC000FEF7F2FE606D0560D4E91601416002E0A7
:101BD0006565A565E565E563012084F8250084F861
:101BE0002450002070BD000008040240F8FFFDBF33
:101BF0000000024070B5044600F07EFC0546601C03
:101C000002D004484068044400F076FC401BA04227
:101C1000FAD370BD2400002030B590F85C30012B61
:101C200007D0022B05D0016E41F0020101660120B0
:101C300030BD0468A36D4D0701D0DD071DD011F044
:101C4000380F01D09D0718D511F4E07F01D05D0752
:101C500013D511F4F05F01D01D070ED511F4604FBC
:101C600001D0DD0609D511F4403F01D09D0604D511
:101C700011F47C0F05D05D0603D4E56D45F0010538
:101C8000E5654C0701D0DC071DD111F0380F01D0FC
:101C90009C0718D411F4E07F01D05C0713D411F431
:101CA000F05F01D01C070ED411F4604F01D0DC06A8
:101CB00009D411F4403F01D09C0604D411F47C0FE8
:101CC00006D05B0604D50368DC6D44F00204DC65D5
:101CD0000B0604D5036853F8DC4F14431C60CB0596
:101CE00004D5036853F8E04F14431C600068426D4C
:101CF0000A434265002030BD70B5044690F85C0090
:101D0000022803D0206E40F0080007E02068D0F8D9
:101D1000C4309B0205D5206E40F40070206601207F
:101D200070BDD0F8C400C0F301452B462046FEF735
:101D30005DFE21680120A840C1F8CC00A06500200C
:101D400070BD10B590F85C20012A07D0022A05D09A
:101D5000016E41F002010166012010BD0A687AB1EE
:101D60000B7B0A690C7A42EA43734A69406C496802
:101D700042EA847200EBC100C0E90032002010BDCD
:101D80000B7A4A690C8A42EA83720B7B006CDB0691
:101D9000496843EA04431A4340F82120EEE77047BC
:101DA00070470000F0B590F85C40022C03D0016E43
:101DB00041F008014CE0046840293CD0D4F8985028
:101DC0002D0742D0D4F89840C4F30126C46C06EB2A
:101DD000C60504EBC5052C6814F0804454602C68DB
:101DE00039D024F0604414602C68284F04F000546B
:101DF000946010CD04F00044146135F8044BA4B293
:101E0000D46155F8044C04F47024D46055F8044CA3
:101E100004F48014546155F8044C04F400149461E3
:101E200055F8044CC4F30664146255F8044CE40FEE
:101E30005462002417E0D4F890502D0705D0D4F850
:101E40009040C4F30126846CC1E7016E41F48071B7
:101E500001660120F0BDC4F38A44C4E715F804C04C
:101E600003F804C0641CD2F80CC007EB1C4C9CF8AF
:101E700000C0A445F2D80068402903D0C0F89C6097
:101E80000020F0BDC0F89460FAE700000458000894
:101E900070472DE9F04704460068016D466D01F476
:101EA000E0510E40016D476D01F007010F40016DDB
:101EB000426D01F0380102EA0108016D456D01F43F
:101EC00071010D40016D426D01F4602102EA0109CA
:101ED000016D490607D5416D490604D540210165CC
:101EE0002046FFF7D5FF2068016DC9050DD5416D6E
:101EF000C9050AD5D0F8D820D0F8E01011404FF429
:101F000080720265204600F014FA2EB12068066542
:101F10003146204600F00FFA2FB120680765394698
:101F2000204600F0C3F9B8F1000005D0216808652B
:101F30004146204600F0E4F92068016D890508D586
:101F4000416D890505D54FF400710165204600F00B
:101F5000F3F92068016D09060CD5416D090609D514
:101F6000D0F8D420D0F8DC10114080220265204641
:101F700000F0E0F92068016D890408D5416D8904FD
:101F800005D54FF400510165204600F0D1F92068D5
:101F9000016D090408D5416D090405D54FF40041D0
:101FA0000165204600F0C3F92068016D490409D598
:101FB000416D490406D54FF480410165206E40F023
:101FC00080002066B9F1000005D021680865494607
:101FD0002046FFF7E5FE25B120680565206E284301
:101FE0002066206E002802D02046FFF7D8FEBDE80C
:101FF000F08700002DE9F041040006D0DFF8F481FD
:1020000094F85C00002518B107E00120BDE8F081DC
:1020100084F85D50204600F0F9F82068816921F0CD
:102020001001816100F068FA0646032704E000F021
:1020300063FA801B0A2811D8206880690007F6D44B
:102040002068816941F00101816100F055FA06467E
:102050000BE000F051FA801B0A2806D9206E40F0F0
:102060000100206684F85C70CFE720688069C007B3
:10207000EFD02068816941F002018161216841450A
:1020800002D15D4960680860207C01282068816970
:1020900037D041F040018161607C0128206881696E
:1020A00032D021F480418161A07C012820688169BF
:1020B0002DD041F48051816120688169A26821F4AA
:1020C0004071114381612068816921F0A40181611F
:1020D0002068016921F010010161E068012819D030
:1020E00010B302281BD02068816941F08001816112
:1020F0002068016941F010010161E06803280ED0F9
:1021000012E021F04001C6E741F48041CBE721F421
:102110008051D0E72068816941F0040103E0206824
:10212000816941F020018161207EE16940066FF004
:10213000FF0202EB0121A0F100700843216AA38A8B
:10214000491E0843110201EB034318432368D86179
:10215000A068B0F5407F10D1D4E90A0302EB032256
:10216000401E1043226B0B1303EB02121043A28C90
:1021700001EB024108432168C860206850F8C01F85
:10218000E26B114301601E4A21681C48914200D154
:102190001C481D4A914201D100F5D460206451F8D9
:1021A000802FA38E22F4F81242EA03420A6000F163
:1021B00070016164216851F8802F94F8383022F062
:1021C000706242EA03620A6000F1B001A164D83192
:1021D000E164D831216518316165D83100E020C053
:1021E0008842FCD3A5652566012084F85C000020A8
:1021F0000CE70000006400400065004000A40040BF
:102200000068004050A70040006C004010B59CB032
:102210000446142115A8FEF74FF854216846FEF72E
:102220004BF81F492068884238D180140090400341
:102230000E90684600F0FAFE08B1FEF7C8FB194898
:10224000816D41F000718165816D01F000711A911D
:10225000C16C41F00201C164C06C15A900F002001C
:102260001A904FF4405015900220169000201790BD
:102270001890092019900C4800F060F80022012104
:10228000562000F03BFE562000F02AFE00220121DD
:10229000572000F033FE572000F022FE1CB010BD86
:1022A000006800400010024000040048114A10B5C8
:1022B00090421ED1C8071CD00F4B104A40210D4838
:1022C000FFF770FD0D480068B0F5D57F11D10A48C1
:1022D000A0F1100201881180418809B200EE101AA5
:1022E0000649B8EEC00AB83981ED020A111F00791B
:1022F000087010BD180200201400002024010020E6
:10230000704790F85C10012905D0016E41F004017E
:10231000016601207047022180F85C1001688A691B
:1023200022F001028A610021016608467047704769
:102330007047704770477047704700002DE9F84FAD
:10234000DFF888910022A9F1040B03274FF00F0C4E
:1023500009F1040AABF1040EB1E0012595402B40D0
:1023600073D00C7904F00304012C01D0022C15D198
:102370008668540007FA04F826EA0806D1F80C80AB
:1023800008FA04F848EA0608C0F808804468AC4334
:102390000D79C5F300159540254345600C79E4435C
:1023A000A40708D0C568540007FA04F6B5438E6840
:1023B000A6402E43C6600C7904F00304022C11D110
:1023C000D40800EB8406356A5407E40E0CFA04F8CE
:1023D00025EA0805D1F8108008FA04F848EA05084B
:1023E000C6F820800568540007FA04F6B5430E7954
:1023F00006F00306A6402E4306604C6814F4403FE6
:102400005CD0334C256E45F001052566246E22F024
:10241000030504F0010400942E4C05EB0408D8F8E1
:1024200008509407260F0CFA06F4A543B0F1904F1C
:1024300004D0294CA04203D1012417E0002415E068
:10244000264CA04202D1022410E037E0244CA042E6
:1024500001D103240AE0234CA04201D1042405E069
:10246000214CA04201D1052400E00624B4402C43B5
:10247000C8F80840D9F800404D464E689C43F60223
:1024800000D51C432C60DAF8004055464E689C434A
:10249000B60200D51C432C60DBF800405D464E6858
:1024A0009C43B60300D51C432C60DEF80040754603
:1024B0004E689C43F60300D51C432C60521C0B68ED
:1024C00033FA02F47FF449AFBDE8F88F0804014005
:1024D00000100240000001400004004800080048CD
:1024E000000C004800100048001400480AB1816147
:1024F00070478162704700000148806870470000A3
:102500002400002030B590F8DD30022B15D090F873
:10251000DC30012B11D0012380F8DC30022480F85C
:10252000DD400024202948D00EDC042933D006DC0D
:10253000012922D0022911D125E0022030BD08292D
:102540002FD010290AD132E040293CD0802942D036
:10255000B1F5807F45D0B1F5007F48D0072180F8E4
:10256000DD1080F8DC4090F8DD10072945D080F8B8
:10257000DD3080F8DC40002030BD0168D1F8005427
:1025800062F3040504E00168D1F8005462F38A158F
:10259000C1F80054E7E70168D1F8005462F3103540
:1025A000F6E70168D1F8005462F39645F0E7016858
:1025B000D1F8005462F31C65EAE70168D1F80454CD
:1025C00062F3040504E00168D1F8045462F38A154B
:1025D000C1F80454C7E70168D1F8045462F3103518
:1025E000F6E70168D1F8045462F39645F0E7016814
:1025F000D1F8045462F31C65EAE7012030BDF0B560
:1026000090F8DD30022B1AD090F8DC30012B16D078
:10261000012680F8DC60022380F8DD300368D3F8FF
:102620008053D3F8FC43002720296ED00EDC042908
:102630003DD006DC012922D0022911D12AE0022056
:10264000F0BD082940D010290AD14AE040297ED0A7
:10265000802977D0B1F5807F75D0B1F5007F73D038
:10266000072280F8DD2080F8DC7090F8DD20072A52
:102670006BD01029016869D2C1F88053C9E025F4F4
:10268000E02C1568526805F4E02545EA0C05C3F80E
:10269000BC23EAE725F4601C15684FF4601E0EEABF
:1026A000C505526845EA0C05C3F8C023DDE725F0EF
:1026B000E07C15684FF0E07E0EEA8515526845EA29
:1026C0000C05C3F8C423D0E725F0606C15684FF003
:1026D000606E0EEA4525526845EA0C05C3F8C8232A
:1026E000C3E724F0070C1468C4F3024444EA0C0462
:1026F000D3F8F8C32CF01F0CC3F8F8C30368D3F861
:10270000F8C3127902F01F0216E024F0700C14686E
:102710004FF0700E0EEA143444EA0C04D3F8F8C3F8
:102720002CF4787CC3F8F8C30368D3F8F8C3526874
:102730004FF4787E0EEA42124CEA020CC3F8F8C35A
:1027400093E704E01BE032E047E05EE05FE024F462
:10275000E06C14684FF4E06E0EEA142444EA0C04B2
:10276000D3F8F8C32CF4F84CC3F8F8C30368D3F8D3
:10277000F8C352684FF4F84E0EEA8222DCE724F4E4
:10278000E04C14684FF4E04E0EEA141444EA0C04D2
:10279000D3F8F8C32CF4F81CC3F8F8C30368D3F8D3
:1027A000F8C392884FF4F81E0EEA0242C4E724F4FC
:1027B000E02C146804F4E02444EA0C04D3F8F8C3D1
:1027C0002CF0787CC3F8F8C30368D3F8F8C3928878
:1027D0004FF0787E0EEA4252AEE724F4E00C146823
:1027E0004FF4E00E0EEA041444EA0C04D3F8F8C3E4
:1027F0002CF0F84CC3F8F8C30368D3F8F8C3127987
:102800004FF0F84E0EEA826296E70120F0BDC1F863
:10281000FC4380F8DD6080F8DC700020F0BD70477C
:1028200070477047704770477047704770477047F0
:1028300010B590F8DC20012A21D0012380F8DC308B
:10284000022280F8DD204A1C1BD00268D2F8CC435B
:1028500044F00204C2F8CC430268D2F8CC4324F01E
:102860000C040C43C2F8CC430168D1F8CC2342F0ED
:102870000102C1F8CC2380F8DD30002010BD022019
:1028800010BD0168D1F8CC2322F00202C1F8CC239C
:10289000EAE7000070B590F8DD30022B3CD090F8EC
:1028A000DC30012B38D0012500F8DC5F02234370B7
:1028B000138803F4E0549388C3F308032343148973
:1028C00004F400741C43138A03F48046938926435E
:1028D00003F400433343948A6FF07E4606EA0444CF
:1028E0001C43936903F000732343146AD26904F014
:1028F00080441C4302F00043234350F8DC2CB824EE
:1029000004EBC1115458054E34401C4354504570DB
:1029100000210170084670BD022070BD0020003CFF
:102920007047704770477047704770477047FF297E
:1029300003D0062903D001F03DBF01F0BBBD01F07B
:1029400055BE000038B5040055D0022084F8DD00E3
:102950000025C4F8E050C4F8E450C4F8E850C4F8C6
:10296000EC50C4F8F050C4F8F450C4F8F850207A91
:10297000C0071BD021492068884208D12048016E39
:1029800041F080610166006E00F080600090206878
:102990000168228A21F4404102F440420A43A18A9C
:1029A00022F4405201F4405111430160204600F0EE
:1029B00029F8207A800708D52068016821F4407240
:1029C000A18901F4407111430160012084F8DD0008
:1029D00084F8DC500021C1EBC10004EB8000491CED
:1029E0008561C561056245628562C9B205630629D4
:1029F000F1D9002038BD012038BD00000068014039
:102A00000010024008B500680B49884212D10B48FB
:102A1000016E41F080610166006E002200F080606E
:102A200000900221452000F069FABDE808404520E9
:102A300000F056BA08BD00000068014000100240D6
:102A400010B586B0044614216846FDF735FC0F49E1
:102A50002068884218D10E48C16C41F00101C16460
:102A6000C06C694600F0010005904FF44060009092
:102A70000220019000200290032003900D2004907A
:102A80004FF09040FFF75AFC06B010BD00680140BF
:102A900000100240704770477047704770B50C4691
:102AA0000546FFF729FD064607E0601C05D0FFF745
:102AB00023FD801BA0420DD864B12868D0F888039C
:102AC000C043C003F1D4012085F8DD00002085F863
:102AD000DC0070BD072085F8DD00032070BD704765
:102AE00070477047704770B590F8DD30022B23D0E7
:102AF000022380F8DD30062920D08024036804EB0F
:102B0000C1141D5925F007069568354325F01806B0
:102B1000D56835431D519425046805EBC11513682C
:102B200063519824036804EBC11152685A50012183
:102B300080F8DD10002070BD022070BD01680B68B8
:102B400023F0070493682343D46823F018031C433D
:102B50000C60036811685961516802689161E6E789
:102B60002DE9F04F90F8DD40022C25D090F8DC40A4
:102B7000012C21D04FF0010980F8DC90022480F86C
:102B8000DD4007270026062919D09C2404EBC11C30
:102B9000012A3AD0A8244FF0800804EBC1154FF465
:102BA000005A4FF4405B08EBC114022A2FD0042ACC
:102BB00041D0082A0BD140E00220BDE8F08F012A65
:102BC0000AD0022A0CD0042A0ED0082A10D080F88D
:102BD000DD7080F8DC600EE002681968D1610AE0FF
:102BE00002681968516206E002681968916202E0A1
:102BF00002681968D16290F8DD10072942D080F888
:102C0000DD9080F8DC600020D7E719682EE04FF0F7
:102C1000A408076808EBC1111A687A50596800299E
:102C200001680A5922F440522AD00A5101680A590F
:102C30005F683A4315E019681FE04FF0AC08076879
:102C400008EBC1111A687A505968002901680A59BD
:102C500022F4404214D00A5101680A595F6842EADE
:102C600087020A515968514504D19968026842F8AF
:102C70000C10C0E75945BED1996802685151BAE7B6
:102C80000A51B8E7012098E710B590F8DC20012A36
:102C90000ED0012400F8DC4F0222427050F8DC2CE8
:102CA00013680B431360447000210170084610BD87
:102CB000022010BD70B5044690F8DD00022811D046
:102CC00094F8DC0001280ED0012584F8DC500220A5
:102CD00084F8DD00204601F001FD84F8DD5000207D
:102CE00084F8DC0070BD022070BD10B590F8DC20C7
:102CF000012A10D0012400F8DC4F0222427050F863
:102D0000DC2CD2F894330B43C2F894334470002186
:102D10000170084610BD022010BD2DE9F0410446A7
:102D200090F8DD0015460E46022826D094F8DC0007
:102D3000012821D0012784F8DC70022084F8DD000E
:102D4000062E1CD0204601F0E9FDC6EBC60004EBC0
:102D500080002968016269684162A9688162E96846
:102D6000C162296901633146204601F06FFB062EDE
:102D700015D0E86A40B112E00220BDE8F0811146AA
:102D8000204601F0EBFBE0E78021206801EBC61153
:102D90004258EB6D22F4007242EA4322425084F81A
:102DA000DD70002084F8DC00E7E72DE9F0410446FF
:102DB00090F8DD00022824D094F8DC0001281FD010
:102DC000012584F8DC50022084F8DD00EC20236823
:102DD00000EBC1169859176820F0100040EA071060
:102DE00020F480175068384320F48037D068384387
:102DF00020F40037906838439769012F03D00CE026
:102E00000220BDE8F081176920F0040007435069F3
:102E100027F00207384340F001009851204601F0A6
:102E200015FB84F8DD50002084F8DC00E9E70000A1
:102E30000248816842681144816070472400002084
:102E400010B50024032000F079F8002000F008F805
:102E500008B1012401E000F025F8204610BD000073
:102E600070B50E4E05460024706898B14FF47A7123
:102E7000B1FBF0F00A490968B1FBF0F000F09AFDEF
:102E800040B9102D06D200222946501E00F036F817
:102E9000356000E00124204670BD000024000020C1
:102EA000300000200D4808B5016E41F001010166B7
:102EB000016E01F001010091816D41F08051816549
:102EC000806D00F08050009000F062FD022000F064
:102ED00067FDBDE8084000F0A1B800000010024006
:102EE000002809DB00F01F02012191404009800009
:102EF00000F1E020C0F8001170470000F0B40E4B64
:102F00001B68C3F30223C3F10704042C00D9042473
:102F10001D1D072D01D2002300E0DB1E012606FA4D
:102F200004F56D1E0D409D409E40761E164045EAFC
:102F30000601F0BC02F03ABC0CED00E0064A00F0DD
:102F4000070110684FF6FF03184040EA01200349CB
:102F500008431060704700000CED00E00000FA0527
:102F60002B492C4B0A6832214A432B4940B1B0F51A
:102F7000007F086829D020F4C06040F480602CE015
:102F80000868C0F34120022804D051F8800F20F4D3
:102F9000807022E0D1F8800020F48070C1F88000B9
:102FA000086820F4C06040F400700860B2FBF3F0E1
:102FB000401C00E0401E4A69520501D50028F9D1A5
:102FC000486940050AD503207047C0F34120022814
:102FD00006D051F8800F40F48070086000207047E0
:102FE000D1F8800040F48070C1F88000086820F4B7
:102FF000C06040F400700860B2FBF3F0401C00E0D9
:10300000401E4A695205DBD50028F9D1D8E70000F7
:103010003000002040420F000070004002488168EC
:1030200041F4804181607047007000402DE9F84F05
:10303000044600260068C14D374600035DD5A86DE3
:103040004FF00009C00009D4A86D40F08050A86579
:10305000A86D4FF0010900F080500090DFF8E0A269
:10306000DAF8001041F48071CAF80010FFF744FA52
:10307000804607E0FFF740FAA0EB0800022801D9DC
:10308000032632E0DAF80000C005F3D56EBBD5F8B0
:10309000900010F4407014D0216D814211D0D5F809
:1030A0009000D5F8901020F4407041F48031C5F8BC
:1030B0009010D5F8901021F48031C5F89010C5F823
:1030C0009000C0077ED0FFF717FA804641F2883A99
:1030D00005E0FFF711FAA0EB08015145D0D8D5F86B
:1030E00090008007F5D5002E6CD03746B9F1000F5F
:1030F00003D0A86D20F08050A8652078C00707D0C5
:10310000D5F88800616820F003000843C5F88800FE
:103110002078800707D5D5F88800A16820F00C003A
:103120000843C5F888002078400707D5D5F88800FF
:10313000E16820F030000843C5F8880020780007D7
:1031400007D5D5F88800216920F0C0000843C5F8EC
:1031500088002078C00607D5D5F88800616920F47A
:1031600040700843C5F888002078800607D5D5F858
:103170008800A16920F440600843C5F888002078E1
:10318000400607D5D5F88800E16920F4405008438F
:10319000C5F888002078000607D5D5F88800216A90
:1031A00020F440400843C5F888002088C00507D5B2
:1031B000D5F88800616A20F440300843C5F88800DB
:1031C000206800E024E0800307D5D5F89C00A16AC0
:1031D00020F003000843C5F89C002088800507D52F
:1031E000D5F88800E16A20F440200843C5F888003B
:1031F0002088400519D5D5F88800216B20F44010AF
:103200000843C5F88800206BB0F5801F09D00CE09A
:10321000D5F89000216D20F440700843C5F8900067
:1032200064E7E86840F48010E860208800050FD566
:10323000D5F88800616B20F440000843C5F8880089
:10324000606BB0F5800F03D1E86840F48010E8604F
:103250002088C0040FD5D5F88800A16B20F04070FD
:103260000843C5F88800A06BB0F1807F03D1E868FF
:1032700040F48010E860208881044FF000600ED593
:10328000D5F88810E26B21F040611143C5F8881031
:10329000E16B814203D1E96841F48011E960218842
:1032A00049040ED5D5F88810226C21F040611143F5
:1032B000C5F88810216C814203D1E86840F4801081
:1032C000E860208800040FD5D5F88800616C20F0F4
:1032D00040500843C5F88800606CB0F1805F03D1AE
:1032E000E86840F48030E8602068C0030FD5D5F866
:1032F0008800A16C20F040400843C5F88800A06C0D
:10330000B0F1804F03D1E86840F48030E860206875
:1033100040030FD5D5F89C00E16C20F44010084321
:10332000C5F89C00E06CB0F5001F03D1E86840F4DC
:103330008010E8603846BDE8F88F000000100240B9
:10334000007000402DE9F0470D4604004FF00007E3
:1033500025D0DFF8AC91D9F8000000F00F00A842AA
:103360000CD2D9F8001021F00F012943C9F8001040
:10337000D9F8000000F00F00A84210D12168614E7A
:10338000C80741F2883A58D06068DFF87C8103288A
:1033900008D0022830682CD0400500282BDB012003
:1033A000BDE8F08730688001F9D5F06800F00302CD
:1033B000F068C0F30310401C032A18D0534AB2FB34
:1033C000F0F0F268C2F306225043F268C2F34162A1
:1033D000521C5200B0FBF2F0404517D9B06810F013
:1033E000F00F0CD0880711D5A06840B10EE0484A14
:1033F000E5E78003D1E700F093F8404506D9B068CF
:1034000020F0F00040F08000B0608027B068616874
:1034100020F003000843B060FFF76EF8804605E037
:10342000FFF76AF8A0EB080151453BD8B068616826
:1034300000F00C00B0EB810FF2D12068810714D5A9
:10344000400703D5B06840F4E060B0602078000722
:1034500005D5B06820F4605040F4E060B060B0681A
:10346000A16820F0F000084304E0802F03D1B06889
:1034700020F0F000B060D9F80010484601F00F01CC
:10348000A94217D90168C84621F00F0129430160FC
:10349000FFF732F80746D14606E0FFF72DF8C11BCB
:1034A000494501D903207BE7D8F8000000F00F0060
:1034B000A842F2D12078400705D5B068E16820F431
:1034C000E0600843B0602078000706D5B068216945
:1034D00020F4605040EAC100B06000F021F8B1680B
:1034E0000C4AC1F30311515C01F01F01C8400A49A5
:1034F00008600A480068BDE8F047FFF7B1BC00006B
:10350000002002400010024000B4C4040024F40073
:1035100000366E01145800083000002024000020FE
:10352000184A10B59068C0F38101174801290BD0E3
:103530009168164CC1F38101022906D09168C1F34C
:103540008101032903D0002010BD204610BDD168A1
:1035500001F00303D168C1F30311491C032B02D00E
:10356000B0FBF1F001E0B4FBF1F0D168C1F306214A
:103570004843D168C1F34161491C4900B0FBF1F0F7
:1035800010BD0000001002400024F40000366E015F
:103590002DE9F843040078D02078F84DC00745D0D5
:1035A000A868E96800F00C0001F003010C2802D0C3
:1035B000082817D001E0032914D06068B0F5803FD7
:1035C00017D0B0F5A02F286817D020F480302860DD
:1035D000286820F4802028606068D8B1FEF78CFF4E
:1035E000064613E02868800320D560680028D2D002
:1035F0001CE0286840F48030EDE740F4802028602B
:10360000F7E7FEF779FF801B64286ED828688003EF
:10361000F7D50BE0FEF770FF064604E0FEF76CFFFF
:10362000801B6428F1D828688003F7D420788007AD
:103630004BD5A868E96800F00C0001F003010C28E4
:1036400002D004280DD001E002290AD0E068002849
:1036500028682BD040F480702860FEF74DFF0646A6
:1036600019E02868400502D5E068002893D0686812
:10367000217C20F0FE4040EA01606860C04800689C
:10368000FFF7EEFB002800D11FE072E1FEF734FFE8
:10369000801B0228B9D828684005F7D56868217CC6
:1036A00020F0FE4040EA016068600EE020F4807087
:1036B0002860FEF721FF064604E0FEF71DFF801B91
:1036C0000228A2D828684005F7D42078000728D51A
:1036D00060690028D5F8940012D040F00100C5F8C8
:1036E0009400FEF709FF064605E08FE0FEF704FFB1
:1036F000801B022889D8D5F894008007F6D510E001
:1037000020F00100C5F89400FEF7F6FE064604E03E
:10371000FEF7F2FE801B022878D8D5F894008007C7
:10372000F6D42078400761D5A86D0027C00008D4E2
:10373000A86D40F08050A865A86D012700F080506A
:10374000009090480168C90511D40168804641F491
:1037500080710160FEF7D0FE064604E0FEF7CCFE65
:10376000801B022852D8D8F80000C005F6D5A06802
:10377000012815D00528D5F8900016D020F00100BA
:10378000C5F89000D5F8900020F00400C5F890002E
:10379000A06841F28838B8B1FEF7AEFE06460EE0EA
:1037A000D5F8900040F00100F0E740F00400C5F8C3
:1037B0009000F5E7FEF7A0FE811B414526D8D5F81D
:1037C00090008007F6D50CE0FEF796FE064604E072
:1037D000FEF792FE811B414518D8D5F8900080076E
:1037E000F6D41FB1A86D20F08050A865207880061F
:1037F00028D5A0690028D5F8980012D040F0010023
:10380000C5F89800FEF778FE064605E075E0FEF77D
:1038100073FE801B022876D8D5F898008007F6D56D
:1038200010E020F00100C5F89800FEF765FE06469E
:1038300004E0FEF761FE801B022864D8D5F89800EA
:103840008007F6D4E069E8B3A968C1F381010329D0
:1038500060D00228286820F0807028600BD0E868CB
:1038600020F00300E860E86847490840E860FEF798
:1038700043FE04464AE0FEF73FFE064604E0FEF73C
:103880003BFE801B02283ED828688001F7D4F4E96B
:1038900008016FF00F0202EB01110843218A520464
:1038A000490802EB4151A26841EA02210843217D07
:1038B0004FF07E42490802EB41610843217B40EA18
:1038C000C16000E057E0E968304A11400843E86011
:1038D000286840F080702860E86840F08070E860F8
:1038E000FEF70AFE044604E0FEF706FE001B02286F
:1038F00009D828688001F7D53DE004E0FEF7FCFD1B
:10390000001B022802D90320BDE8F8832868800143
:10391000F4D430E00128F7D0E868226A00F003010F
:10392000914226D1616A00F0F002090110399142FA
:103930001FD1A26A00F4FE41B1EB022F19D194F815
:103940002C2000F07841B1EBC26F12D1218E00F42F
:10395000C00249084905A1F50011914209D194F826
:10396000341000F0C06049084906A1F1007181429D
:1039700001D00120C8E70020C6E700000010024087
:103980002400002000700040FFFFEEFE0C809F012D
:103990000248016B21F00101016370470000014002
:1039A00003490A6B22F0020202430A6370470000D7
:1039B0000000014010B5401EB0F1807F01D301200E
:1039C00010BD4FF0E02460610F21601701F0EEFEA2
:1039D0000020A06107202061002010BD70477047C3
:1039E00070470000F0B590F83C20012A58D0012221
:1039F00080F83C20CA688B6822F440721A434B68F6
:103A000022F480621A430B6822F400621A430B69A5
:103A100022F480521A434B6922F400521A430B6B72
:103A200022F480421A430B8B22F4702242EA0343B1
:103A30001C4F026800261C4C1C4DBA4203D0A24207
:103A400001D0AA4205D1D1F81CC023F0805343EA2B
:103A50000C03BA4203D0A24201D0AA421BD1B1F852
:103A600028C023F4700343EA0C53D1F820C023F09C
:103A7000807343EA0C03D1F824C023F0007343EAB7
:103A80000C03BA4203D0A24201D0AA4203D1C96AB0
:103A900023F000530B43536480F83C600020F0BDDA
:103AA0000220F0BD002C01400034014000500140D4
:103AB00070470068416D41F4003141650020704756
:103AC00070477047F0B590F83C20012A43D001259B
:103AD00080F83C50022280F83D2003685A689C68B8
:103AE0001E4E1F4FDFF87CC0B34203D0BB4201D053
:103AF000634504D122F4700E4A6842EA0E02DFF8F0
:103B000068E002EA0E02D1F800E04EEA020EC3F8C5
:103B100004E00268B24212D0B2F1804F0FD0134BD2
:103B20009A420CD0124B9A4209D0124B9A4206D0BC
:103B3000BA4204D0104B9A4201D0624504D1896840
:103B400024F080031943916080F83D50002180F8F3
:103B50003C100846F0BD0220F0BD0000002C0140E2
:103B600000340140005001408FFFFFFD0004004081
:103B700000080040000C00400040014010B5044621
:103B800049B104290AD008290BD094F8470001282C
:103B90000AD0012010BD94F84400F8E794F84500DD
:103BA000F5E794F84600F2E70220A9B3042937D0DC
:103BB000082938D084F847000422206801F0F1FB7E
:103BC0002068416C41F400414164184920688842F2
:103BD00014D0B0F1804F11D0154988420ED015494C
:103BE00088420BD01449884208D01449884205D035
:103BF0001349884202D01349884207D18168124A8A
:103C00001140062906D0B1F5803F03D0016841F08C
:103C100001010160002010BDFFE784F84400CBE7FC
:103C200084F84500C8E784F84600C5E7002C014049
:103C30000004004000080040000C00400034014037
:103C4000004001400050014007000100704710B5DE
:103C5000040003D094F83D0010B107E0012010BD2E
:103C6000002084F83C00204600F022F8022084F86E
:103C70003D00211D206801F01DFB012084F8480053
:103C800084F83E0084F83F0084F8400084F8410046
:103C900084F8420084F8430084F8440084F8450026
:103CA00084F8460084F8470084F83D00002010BDE9
:103CB00008B50068204A2149904226D1086E40F498
:103CC00000600866086E002200F400600090012188
:103CD0001820FFF713F91820FFF702F9002201213D
:103CE0001920FFF70BF91920FFF7FAF8002201213C
:103CF0001A20FFF703F91A20FFF7F2F8002201213A
:103D00001B20FFF7FBF81B2010E00D4A904211D159
:103D1000886D40F010008865886D002200F010006A
:103D2000009001213620FFF7E9F83620BDE8084071
:103D3000FFF7D6B808BD0000002C0140001002407B
:103D40000010004090F83D10012901D0012070477B
:103D5000022180F83D100168CA6842F00102CA6081
:103D600000681349884214D0B0F1804F11D0114936
:103D700088420ED0104988420BD01049884208D0A2
:103D80000F49884205D00F49884202D00E49884227
:103D900007D181680D4A1140062906D0B1F5803F50
:103DA00003D0016841F0010101600020704700006C
:103DB000002C01400004004000080040000C0040BE
:103DC0000034014000400140005001400700010064
:103DD0002DE9F041044690F83C0000250F460128EB
:103DE0001CD0012684F83C60022084F83D00206845
:103DF0008168324A114021F47F4181603968B1F510
:103E0000005F2DD017DC402948D00ADCD9B1102939
:103E100019D0202917D0302948D114E00220BDE85C
:103E2000F081502928D060292ED070290DD0B1F50D
:103E3000805F3BD13BE011F00F0F37D10811A0F5A7
:103E40008030072832D8206825E0D7E90121FB68B7
:103E5000206801F0B3FA2068816841F0770109E039
:103E6000D7E90121FB68206801F0A8FA2068816881
:103E700041F4804181601AE0FA687968206801F0B5
:103E800071FC5021206806E0FA687968206801F02A
:103E90007AFC6021206801F09BFA08E0FA687968F2
:103EA000206801F05FFC40212068F4E7012584F8D8
:103EB0003D60002084F83C002846B0E788FFCEFF34
:103EC000704770B50446006801694FF00005C943AA
:103ED000890715D4C168C943890711D4E91E016156
:103EE00001202077206880698007204602D0FFF7F4
:103EF000E7FF04E000F01AF9204600F0F9F9257711
:103F000020680169C943490717D4C168C9434907F3
:103F100013D46FF0040101610220207720688069CA
:103F200010F4407F204602D0FFF7CAFF04E000F003
:103F3000FDF8204600F0DCF9257720680169C943C7
:103F4000090716D4C168C943090712D46FF00801E4
:103F50000161042020772068C0698007204602D0D4
:103F6000FFF7AEFF04E000F0E1F8204600F0C0F9F2
:103F7000257720680169C943C90617D4C168C943B8
:103F8000C90613D46FF01001016108202077206862
:103F9000C06910F4407F204602D0FFF791FF04E093
:103FA00000F0C4F8204600F0A3F9257720680169E5
:103FB000C943C90708D1C168C943C90704D1891ECB
:103FC0000161204600F026FA20680169C94309060C
:103FD00009D4C168C943090605D46FF080010161A5
:103FE0002046FFF7FCFC20680169C943C90509D4D4
:103FF000C168C943090605D46FF480710161204688
:10400000FFF7ECFC20680169C943490609D4C1687F
:10401000C943490605D46FF040010161204600F014
:104020000DFA20680169C943890609D4C168C943EA
:10403000890605D46FF0200101612046FFF7D0FC0E
:1040400020680169C943C90209D4C168C943C902CA
:1040500005D46FF4801101612046FFF731FD20681F
:104060000169C943890209D4C168C943890205D4D9
:104070006FF4001101612046FFF71AFD2068016905
:10408000C943490209D4C168C943490205D46FF440
:10409000800101612046FFF714FD20680169C943D2
:1040A00009020BD4C168C943090207D46FF40001A7
:1040B00001612046BDE87040FFF7C8BD70BD00003B
:1040C00070B586B0044614216846FCF7F5F814492B
:1040D0002068884221D11348C16C41F00201C164BB
:1040E000C06C022500F0020005904FF48040009063
:1040F0000024CDE901540120CDE903400A4E694670
:104100003046FEF71BF9A8030090CDE9015469463B
:104110003046CDE90345FEF711F906B070BD000049
:10412000004001400010024000040048704770B594
:10413000044690F83C0000260D4601280BD00120D3
:1041400084F83C000C2A4AD007DC82B1042A20D033
:10415000082A06D131E0022070BD102A53D0142A5B
:1041600063D00126002084F83C00304670BD2068F2
:1041700001F038F92068816941F008018161206807
:10418000816921F004018161206881692A691143F4
:1041900011E0206801F07CF92068816941F4006138
:1041A00081612068816921F4806181612068816971
:1041B0002A6941EA02218161D4E7206801F0B8F957
:1041C0002068C16941F00801C1612068C16921F01E
:1041D0000401C1612068C1692A69114311E02068A6
:1041E00001F0F6F92068C16941F40061C1612068FD
:1041F000C16921F48061C1612068C1692A6941EA0D
:104200000221C161AEE7206801F032FA2068016D39
:1042100041F0080101652068016D21F0040101658C
:104220002068016D2A69114311E0206801F05CFAF1
:104230002068016D41F4006101652068016D21F481
:10424000806101652068016D2A6941EA02210165EA
:1042500088E710B5040003D094F83D0010B107E0E2
:10426000012010BD002084F83C00204600F022F818
:10427000022084F83D00211D206801F01BF8012078
:1042800084F8480084F83E0084F83F0084F8400039
:1042900084F8410084F8420084F8430084F8440024
:1042A00084F8450084F8460084F8470084F83D000F
:1042B000002010BD08B500680B49884212D10B4898
:1042C000016E41F480310166006E002200F48030FE
:1042D000009001211820FEF711FEBDE808401820CB
:1042E000FEF7FEBD08BD0000004001400010024086
:1042F0007047000070B5044669B104290ED0082942
:104300000FD00C2910D0102911D094F843000128A7
:1043100010D0012070BD94F83E00F8E794F83F00FB
:10432000F5E794F84000F2E794F84100EFE794F8DD
:104330004200ECE70220E9B304294AD008294BD017
:104340000C294CD010294DD084F84300012220685C
:1043500001F01AF825492068254A264B264D884247
:104360000BD0904209D0984207D0244EB04204D0DE
:10437000234EB04201D0A84203D1466C46F4004619
:1043800046642068884211D0B0F1804F0ED01D499C
:1043900088420BD01C49884208D01C49884205D06D
:1043A000904203D0984201D0A84209D18168184AAE
:1043B000114000E00AE0062906D0B1F5803F03D0A5
:1043C000016841F001010160002070BD84F83E00E9
:1043D000BCE784F83F00B9E784F84000B6E784F80A
:1043E0004100B3E784F84200B0E70000002C014030
:1043F00000340140004001400050014000440140B1
:10440000004801400004004000080040000C00404B
:104410000700010010B504460648844201D1FCF7AC
:1044200035F90548844203D1BDE81040FCF754B883
:1044300010BD000078030020C40300207047000076
:1044400001210148FEF773BA7C020020072930D20F
:10445000DFE801F00A10161C222804000068D0F8DA
:10446000841341F0010122E00068D0F8841341F088
:1044700002011CE00068D0F8841341F0040116E04A
:104480000068D0F8841341F0080110E00068D0F80B
:10449000841341F010010AE00068D0F8841341F061
:1044A000200104E00068D0F8841341F04001C0F816
:1044B0008413704770B506460068D0F88853D0F86A
:1044C0009043E90707D0E10705D00121C0F88C131C
:1044D0003046FEF726FAA80708D5A00706D53168AA
:1044E0000220C1F88C033046FEF71CFA680708D595
:1044F000600706D531680420C1F88C033046FEF70A
:1045000012FA280708D5200706D531680820C1F817
:104510008C033046FEF708FAE80608D5E00606D513
:1045200031681020C1F88C033046FEF7FEF96806AA
:1045300008D5600606D531684020C1F88C033046A6
:10454000FEF7F4F9A80608D5A00606D531682020A4
:10455000C1F88C033046FEF7C5FA70BD70B503682C
:104560001A68D3F8A0534C6922F02002264614435F
:1045700024F0C002202E2AD08C69022C27D0032CD4
:104580002AD0042C2DD022F0E00222F40064CA6963
:10459000224322F480640A6A224322F0C0644A6AF9
:1045A000224322F000648A6A2243CC6A22F040420D
:1045B00042EA840222F000544A6B096B224325F43C
:1045C000803421431A600068C0F8A01370BD22F047
:1045D000C00242F02002D8E722F0800242F04002FE
:1045E000D3E722F0400242F08002CEE72DE9F04707
:1045F00004460068D0F88883D0F890734668C56890
:104600005FEAC8314FF001090DD5F9030BD54FF41E
:104610008031C0F88C1384F8DD90002084F8DC0031
:104620002046FEF704F95FEA883009D5B80307D5BC
:1046300021684FF40030C1F88C032046FEF7EFF8F4
:10464000F00708D0E80706D02168C1F808900621D5
:104650002046FEF7E7F8B00708D5A80706D5216879
:104660000220886006212046FEF7DDF8700708D595
:10467000680706D521680420886006212046FEF7D9
:10468000D3F8300708D5280706D5216808208860A8
:1046900006212046FEF7C9F8F00608D5E80606D53B
:1046A00021681020886006212046FEF719FAB0061E
:1046B00007D5A80605D52168202088602046FEF78A
:1046C00010FA700608D5680606D521684020886073
:1046D00006212046FEF703FABDE8F087F0B5002476
:1046E000E426056806EBC11755F807C0B82606EBA7
:1046F000C116AE59402A20D00EDC082A2CD006DC88
:10470000012A1AD0022A27D0042A31D115E0102A12
:1047100013D0202A2CD11FE0B2F5007F1CD005DC7D
:10472000802A19D0B2F5807F22D106E0B2F5806FE1
:1047300003D0B2F5006F1BD10EE04FF0BC0E0EEBB4
:10474000C11E5A6845F80E204FF0C00E05680EEBEA
:10475000C1119A686A500BE0C42404EBC1145A6872
:104760002A51C825046805EBC1119A6862501024CB
:10477000FE21A1401A682CEA010CA240D96842EA45
:104780000C02A14011431A695D699446A2400A4394
:10479000A54099691543A1402943BCF1080F06D1F2
:1047A000B20504D4B20102D4DA69A2401143006810
:1047B000C151F0BD2DE9F0410746884600688422CA
:1047C00002EBC81146588C2202EBC81145584FF035
:1047D0008802F30702EBC81407D0E90705D00121CE
:1047E000015141463846FEF71DF8B00708D5A80725
:1047F00006D539680220085141463846FEF713F8BD
:10480000700708D5680706D5396804200851414665
:104810003846FEF709F8300708D5280706D5396865
:104820000820085141463846FDF7FFFFF00608D53D
:10483000E80606D539681020085141463846FEF78B
:104840004FF9700608D5680606D53968402008512A
:1048500041463846FEF743F9300608D5280606D506
:1048600039688020085141463846FDF7D9FFF005E8
:1048700009D5E80507D539684FF4807008514146DD
:104880003846FDF7CEFFB00509D5A80507D539682C
:104890004FF40070085141463846FEF7FCF87005A9
:1048A00009D5680507D539684FF48060085141463D
:1048B0003846FEF7EFF8300509D5280507D53968E1
:1048C0004FF40060085141463846FEF7E6F8F00420
:1048D00009D5E80407D539684FF48050085141469E
:1048E0003846FEF7D9F8B00409D5A80407D53968C9
:1048F0004FF40050085141463846FDF797FF7004C9
:1049000009D5680407D539684FF4804008514146FD
:104910003846FEF705F8BDE8F08100002DE9F04FBC
:104920008024036804EBC1169C5924F070449C5108
:104930000568AC59E82303EBC1139E46EF58E42306
:1049400003EBC1139B4655F803A0D5F8A033D2F86A
:1049500014C024F020044CEA0404BCF1200F2ED033
:10496000D2F818C0BCF1020F29D0BCF1030F2BD034
:10497000BCF1040F2DD024F4D07424F4006CD4695D
:1049800044EA0C04D2F820C024F480644CEA040CFD
:10499000546A2CF0C06C44EA0C0424F0006C946A55
:1049A00044EA0C0424F0704CD46A44EA0C04D2F8B3
:1049B00034C024F40034BCF1005F0FD010E024F4C4
:1049C000C07444F02004D8E724F4807444F08004D8
:1049D000D3E724F0800444F48074CEE744F4003438
:1049E000D2F838C024F040044CEA040424F48028AF
:1049F000946D27F03F0744EA0804DFF8CC8004EA0E
:104A00000804D2F8508048EA040992F83C40D2F8F1
:104A1000408004F03F043C4324F0004448EA04088A
:104A2000546C2AF480773C43976CB7F5606F02D0E2
:104A3000B7F5F05F02D1BCF1400F03D124F4F05C74
:104A400047EA0C0424F48047D46C3C43576D062994
:104A500027D2DFE801F003090F151B21126B23F4A5
:104A6000003343EA42031CE0126B23F4802343EA41
:104A7000820316E0126B23F4002343EAC20310E022
:104A8000126B23F4801343EA02130AE0126B23F43F
:104A9000001343EA421304E0126B23F4800343EA59
:104AA000821345F80690056845F80E80056845F8BC
:104AB0000B40D424026804EBC11157500068C0F8C1
:104AC000A033BDE8F08F0000FFFF06FEFEE700EB1D
:104AD0008100006E00F0F84070478068C0F3C000AD
:104AE00070478068C0F3C00070478068C0F3000062
:104AF00070478068C0F3000070478068C0F3800092
:104B000070478068C0F380007047C06810F4406F41
:104B100001D00020704701207047042303EAD153DD
:104B200010B518444369C1F3045107248C40A343D2
:104B30008A401343436110BD00EB8100016E21F0F8
:104B4000004111430166704730B593B000240F94C3
:104B500010943C2168461194FBF7AEFB34484FF0AB
:104B6000A041042501604FF44031C0E90114856182
:104B70000121C460C0E9044104774477016280F8F0
:104B8000244080F83810C46380F84040FCF756FE9B
:104B900008B1FBF71CFF0FA925480F94FCF748FC50
:104BA00008B1FBF714FF234800900920CDE9010468
:104BB0007F200594CDE90305CC200A908DF8244090
:104BC00080208DF825400B9008958DF826408DF8B3
:104BD000304069461648FBF78DFF08B1FBF7F7FE3A
:104BE0001548009040F20F10019069461048FBF7FD
:104BF00081FF08B1FBF7EBFE1048009040F2152052
:104C0000019069460A48FBF775FF08B1FBF7DFFE24
:104C10000B48009040F21B30019069460448FBF7B6
:104C200069FF002801D0FBF7D2FE13B030BD0000B1
:104C30004C01002002003004040060080800900CC1
:104C40001000C010094808B5816C41F0040181646E
:104C5000816C01F004010091816C41F001018164DB
:104C6000806C00F00100009008BD000000100240C0
:104C7000124810B510490160002141608160C16097
:104C80000174417481741122426101220523C0E93B
:104C900006230423C0E908328262C2621022C0E9FE
:104CA0000C218163C163FDF7A5F9002803D0BDE89D
:104CB0001040FBF78CBE10BD0068004018020020B9
:104CC0002DE9F04186B014216846FBF7F5FA234838
:104CD000C16C41F02001C164C16C01F0200105915B
:104CE000C16C41F00101C164C16C01F00101059189
:104CF000C16C41F00401C164C16C01F00401059173
:104D0000C16C41F00201C164C06C154F00F002009B
:104D10000590002230213846FDF7E8FB4FF40046AD
:104D20004FF09048002231464046FDF7DFFB30202F
:104D3000009001250024CDE90154694638460394CA
:104D4000FDF7FCFA0096CDE901546946404603940C
:104D5000FDF7F4FA06B0BDE8F08100000010024053
:104D60000008004830B5B9B000243894379429942D
:104D70002A942B94602168462C94FBF79DFA2D947D
:104D80002E941C2130A82F94FBF796FA242120A8FA
:104D9000FBF792FA202118A8FBF78EFA6B486A49B4
:104DA000C0E900148460FDF7CDFD08B1FBF70FFEEC
:104DB0000C216648FDF73CFD08B1FBF708FE0A210F
:104DC0006248FDF76BFE08B1FBF701FE4FF40030BF
:104DD0003790C010389037AA02215C48FDF70FFCCD
:104DE00008B1FBF7F4FD002202215848FDF78AFBC9
:104DF00008B1FBF7ECFD4FF4AA40CDE929040825E2
:104E000029AA06215148CDE92B45FDF76CFE08B1D2
:104E1000FBF7DDFD0094019401200294CDE90340ED
:104E2000059406940794C0060894CDE909400D94B2
:104E30000B940C946A46062144481794FDF76DFFC5
:104E400008B1FBF7C4FD2DAB012206213F482D948C
:104E5000FDF786FE08B1FBF7BAFD29AA01213B4800
:104E6000FDF741FE08B1FBF7B2FD31943094339465
:104E700030AA012135483694FDF797FF08B1FBF7BA
:104E8000A6FD0220CDE900040007CDE90D04401580
:104E9000CDE910400F941020CDE914408003169006
:104EA00012946A4601212948FDF737FF08B1FBF744
:104EB0008EFD01222DAB11462448FDF751FE08B1AD
:104EC000FBF785FD41F28830CDE92D042DAB0222A0
:104ED00001211E482F94FDF743FE08B1FBF777FD33
:104EE0005020CDE92040CDE92440229423942694FB
:104EF000279420AA012115482894FDF7CBFC08B17E
:104F0000FBF765FD0420CDE91840CDE91A540246AF
:104F10001C941D941E9418AB01210C481F94FDF79E
:104F2000C9FE08B1FBF753FD199418AB0822012103
:104F300006481A94FDF7BEFE08B1FBF748FD03488A
:104F4000FDF77EFD39B030BD006801407C020020D5
:104F500010B598B00024149415941C210DA8169433
:104F6000FBF7AAF934216846FBF7A6F92348224942
:104F70000160A921C0E901146321C0E90314802163
:104F8000C0E90541FFF765F908B1FBF720FD14946E
:104F900014A91A481694FEF795FD08B1FBF717FD02
:104FA0006020CDE90D040F94109411941294002206
:104FB0000DA912481394FFF7BAF808B1FBF707FDE3
:104FC0000E48FEF776FD5020CDE9024000944FF4E4
:104FD0000050CDE90440400001940C9069460694CD
:104FE0000648FEF7FFFC08B1FBF7F1FC0348FFF7AA
:104FF00067F818B010BD0000004001401004002008
:1050000010B588B0002418480094019402940394C9
:1050100004940594134906940160A921C0E9011480
:10502000C721C0E9031444618461FEF710FE08B192
:10503000FBF7CDFC4FF48050009069460A48FEF71C
:10504000C7FE08B1FBF7C3FC0494059404A9064805
:105050000694FEF737FD002801D0FBF7B8FC08B036
:1050600010BD0000002C0140780300203EB5002454
:105070000F48009401940D4902940160A921C0E9F0
:10508000011440F2E7318461C160FEF7E0FD08B130
:10509000FBF79DFC0094694605480294FEF712FD5B
:1050A000002801D0FBF793FC3EBD0000001000403B
:1050B000C4030020FEE7FEE79FED050A80ED030A2A
:1050C00080ED040A80ED050A80ED070A70470000B4
:1050D00000000000C0ED061A80ED082AC0ED092A84
:1050E00080EC030A9FED020A80ED0A0A7047000077
:1050F0000000000080ED0A0A7047000030EE601AE0
:10510000D0ED031AC0ED041AB5EEC01AF1EE10FA94
:1051100002DBF0EE410A01E070EEC00A90ED0A0AEF
:10512000F4EEC00AF1EE10FA04D29FED2E0A80EDE3
:10513000030A7047B4EEC01AF1EE10FA03DD71EE07
:10514000400AC0ED030AF1EE400AB4EEE01AF1EEB7
:1051500010FA03D231EE000A80ED030AD0ED030A03
:1051600090ED021A30EEE10A20EE011A90ED000AED
:1051700000EE801A80ED071A90ED050AD0ED011AB5
:1051800000EEA10A80ED050AD0ED060AF1EE601AE4
:10519000B4EEE10AF1EE10FA02D8B0EE610A06E0D0
:1051A000B4EEE00AF1EE10FA01DBB0EE600A80ED39
:1051B000050A31EE000A80ED070AD0ED090AF1EE8A
:1051C000600AB4EEE00AF1EE10FA06D9D0ED080A52
:1051D000B4EEE00AF1EE10FA01DBB0EE600A80ED09
:1051E000070A70470000000070477047FDF720BEB7
:1051F00010B594B038216846FBF75EF814210EA86C
:10520000FBF75AF80020FDF7ABFE012000900004E8
:10521000032406210190CDE9084102205521CDE962
:105220000A1007900C900D906846FEF7B1F908B18E
:1052300072B6FEE70F20CDE90E0400201090119009
:10524000129004210EA8FEF77DF8002801D072B656
:10525000FEE714B010BD00000248016841F470017F
:105260000160704788ED00E010B50448FEF729FEA4
:10527000BDE810400248FEF724BE0000780300207D
:10528000100400200148FEF71CBE00007803002037
:105290000148FEF716BE0000780300200148FEF723
:1052A00010BE0000780300200148FEF70ABE00008F
:1052B000C40300202DE9F04F02682A4D2A4E2B4FDF
:1052C000DFF8ACC02B4B2C4C4FF0804BA8420BD0DE
:1052D000584509D0B04207D0B84205D0604503D048
:1052E000984201D0A04204D122F070084A6842EAF4
:1052F0000802DFF88880DFF88890DFF888A0A842ED
:1053000011D058450FD0B0420DD0B8420BD06045F7
:1053100009D0984207D0404505D0484503D05045B4
:1053200001D0A04203D122F44076CA6832434E69CC
:1053300022F08002324302608A68C2620A68826296
:10534000A84209D0984207D0404505D0484503D02F
:10535000504501D0A04201D1096901630121416199
:10536000BDE8F08F002C0140000400400008004020
:10537000000C00400034014000500140004001405A
:10538000004401400048014010B501F01F01012315
:10539000046A8B409C430462036A8A40134303629D
:1053A00010BD10B501F01F010423046A8B409C431B
:1053B0000462036A8A401343036210BD10B5846817
:1053C00042EA032224F47F440A432243826010BD50
:1053D0008268034B1A400A4342F00701816070471C
:1053E0008FFFCFFF2DE9F047026A22F0010202622F
:1053F000056A426883691F4C25F0020523400C684A
:1054000023F003031C438B681C4E2B431A4D1C4F87
:10541000DFF870C0DFF87090DFF870A0A84209D004
:10542000B04207D0B84205D0604503D0484501D00E
:10543000504506D123F00808CB6843EA080323F05F
:105440000403A84209D0B04207D0B84205D0604555
:1054500003D0484501D0504505D14D6922F4407232
:1054600015438A692A434260846149684163036243
:10547000BDE8F0878FFFFEFF002C014000340140A3
:1054800000400140004401400048014000500140FC
:10549000F0B5026A22F010020262056A426883696E
:1054A0001C4C1E4E23400C6823F4407343EA042432
:1054B00025F020038D681A4F43EA0513164DA842C4
:1054C00003D0B04201D0B84207D1D1F80CC023F0CC
:1054D000800343EA0C1323F04003A8420CD0B042EF
:1054E0000AD0104DA84207D00F4DA84204D00F4D4E
:1054F000A84201D0B84207D14D6922F4406242EA85
:1055000085028D6942EA850242608461496881634F
:105510000362F0BDFF8FFFFE002C0140003401400C
:10552000005001400040014000440140004801405B
:10553000F0B5026A22F480720262056A4268C369A9
:105540001C4C1E4E23400C6823F003031C4325F41F
:1055500000738D681A4F43EA0523174DA84203D004
:10556000B04201D0B84207D1D1F80CC023F4006397
:1055700043EA0C2323F48063A8420CD0B0420AD043
:10558000104DA84207D0104DA84204D00F4DA8429C
:1055900001D0B84207D14D6922F4405242EA0512C7
:1055A0008D6942EA05124260C4614968C1630362C1
:1055B000F0BD00008FFFFEFF002C014000340140D1
:1055C00000500140004001400044014000480140BB
:1055D000F0B5026A22F480520262056A4268C36929
:1055E0001C4C1E4E23400C6823F4407343EA0424F1
:1055F00025F400538D681A4F43EA0533164DA8422F
:1056000003D0B04201D0B84207D1D1F80CC023F486
:10561000004343EA0C3323F48043A8420CD0B04249
:105620000AD0104DA84207D00F4DA84204D00F4D0C
:10563000A84201D0B84207D14D6922F4404242EA63
:1056400085128D6942EA85124260C461496801642D
:105650000362F0BDFF8FFFFE002C014000340140CB
:10566000005001400040014000440140004801401A
:1056700030B5026A22F480320262056A4268036D24
:10568000124C23400C681C4325F400330D8943EA77
:1056900005430F4DA8420ED00E4DA8420BD00E4D23
:1056A000A84208D00D4DA84205D00D4DA84202D009
:1056B0000C4DA84204D14D6922F4803242EA052201
:1056C0004260046549688164036230BD8FFFFEFF5C
:1056D000002C0140003401400040014000440140E2
:1056E000004801400050014030B5026A22F48012A7
:1056F0000262046A4268036D134D24F400142B40C7
:105700000D6843EA05230D8944EA05540F4DA8426C
:105710000ED00F4DA8420BD00E4DA84208D00E4D12
:10572000A84205D00D4DA84202D00D4DA84204D18B
:105730004D6922F4802242EA85224260036549686D
:10574000C164046230BD0000FF8FFFFE002C0140E9
:105750000034014000400140004401400048014045
:105760000050014010B5046A036A23F0010303628C
:10577000836923F0F00343EA021324F00A020A4388
:105780008361026210BD10B5036A23F01003036247
:105790008469036A24F4704444EA023223F0A003CB
:1057A00043EA01118261016210BDFEE70907090E9B
:1057B000002804DB00F1E02080F80014704700F0BE
:1057C0000F0000F1E02080F8141D7047FDF738FB52
:1057D000FFF70EFDFFF774FAFFF734FAFFF7B4F99D
:1057E000FFF746FAFFF7BEFAFFF70AFCFFF7B0FB38
:1057F000FFF73CFCFAF7AEFEFEE74FF04070E1EE3B
:10580000100A70470001020304050607080C101473
:1058100018203040000000000000000001020304D6
:105820000607080944580008000000203400000062
:105830001402000878580008340000208C10000082
:1058400030020008000000003C003C0000000000A6
:105850000000000000000000000000000000000048
:105860000000000000000000100000000100000027
:08587000000000000024F40018
:04000005080001D915
:00000001FF
